:1000000000400020152D0000552D00006118000053
:1000100000000000000000000000000000000000E0
:10002000000000000000000000000000592D00004A
:1000300000000000000000005B2D00005D2D0000AE
:10004000E91A00005F2D0000992A0000B91A00008B
:10005000C91A000000000000751D0000951900007D
:1000600099290000F1290000452A000079260000A6
:100070005F2D0000212600005F2D00005F2D000095
:10008000312C0000811200006D250000D91A0000FB
:100090005D13000015270000312700004D270000E8
:1000A0006927000085270000000000000000000014
:1000B0000000000000000000000000000000000040
:1000C00010B5064C2378002B07D1054B002B02D02E
:1000D000044800E000BF0123237010BD6C00002025
:1000E00000000000BC2F0000044B10B5002B03D013
:1000F0000349044800E000BF10BDC04600000000F6
:1001000070000020BC2F0000164B002B00D1144BB8
:100110009D46402292029A1A924600218B460F4633
:100120001348144A121A00F065F80F4B002B00D048
:1001300098470E4B002B00D0984700200021040068
:100140000D000D48002802D00C4800E000BF00F070
:100150002DF82000290002F081FD00F011F8C046C2
:100160000000080000400020000000000000000027
:100170006C000020040200200000000000000000CD
:10018000084B10B50400002B02D0002100E000BF96
:10019000054B1868836A002B00D09847200000F0B8
:1001A00031F8C04600000000882F000070B500261E
:1001B0000C4D0D4C641BA410A64209D1002602F080
:1001C000D7FE0A4D0A4C641BA410A64205D170BD8F
:1001D000B300EB5898470136EEE7B300EB58984769
:1001E0000136F2E764000020640000206400002073
:1001F0006800002003001218934200D17047197064
:100200000133F9E7FEE7C046002300B585B001AA37
:100210009060002103481380536000F005F805B09A
:1002200000BDC04601400000BFF34F8F034B044A9E
:10023000DA60BFF34F8FC046FDE7C04600ED00E037
:100240000400FA05F0B5C646154D4B00ED18154BE8
:100250000E0000240127984600B52B5D002B0DD021
:100260002B5D013BDBB22B552B5D002B16D142469B
:10027000B3009B5830001B68DB699847012C0BD1F9
:10028000002F06D0074BB600F3580221586802F041
:100290007BFB04BC9046F0BD0124DEE70027EDE7C0
:1002A000FC01002088000020F0B54E464546DE46A1
:1002B00057462323E0B5160002680400D35C83B0E0
:1002C0000D000820022B6CD14F007B189B00D31827
:1002D0005B68B3469E426BD06168E44B0A799A46EC
:1002E0009B5CDBB2FF2B10D0FE2B00D1C9E0513359
:1002F0000968FF339B00DE48595893001B581120B2
:1003000099424ED1FF2351468B54FE2351468B54C4
:10031000236899467B199B004B4498465B68002BE9
:100320004ED14A462033D05C002E00D1BBE04B4674
:100330009B699E4200D2D5E002F03EF821234A4656
:100340007F19D05C02F038F8BB009C46226801930C
:1003500062441700107A02F02FF8787A02F02CF835
:100360004B469F69BE4200D38DE000235A462900C8
:10037000606802F0BDFA43465A4651465A60FF2271
:1003800063681B79CA542268D269002A08D0B94A26
:100390005B00D31802225A556068022102F0E2FA8B
:1003A000002003B03CBC90469946A246AB46F0BD47
:1003B000D369002BF4D06268107998470020F0E7E9
:1003C0004A46494620209269085C9342ACD22223D7
:1003D000CF5C002E00D1DDE0964200D252E101F068
:1003E000EBFF21264B46985D01F0E6FF3900A2485D
:1003F00002F068F843461A7A0123180090404246FA
:10040000527A39009340184302F086F84B469B69B4
:1004100020209B46994BFA009C4663686244196809
:100420004B464931FF31185C01F086FF0023012261
:100430000321606802F05CFA002163688C4A1B7932
:100440009B009950636819684B460A004931985DD2
:100450004C32FF3101F070FF5B461E04360C202346
:100460004A46D05C01F08CFF21234A46D05C01F063
:1004700087FF4346032251465E6063681B79CA5476
:1004800081E711208DE72268019B94466344997AA5
:100490003F044B1E99414346C9B2186801F050FC15
:1004A0003B0C9B4661E701F087FF4A462123D05C65
:1004B00001F082FF7F192368BF00DE19307A01F056
:1004C0007BFF707A01F078FF23689C466744B97A15
:1004D0004B4259414346C9B2186801F031FC002330
:1004E0009B4642E74A462223D35C7F199B4601F094
:1004F00063FF4A462123D05C01F05EFF2268BF0003
:100500009446BC446346187A019301F055FF019B61
:100510004F44587A01F050FF0023320029006068F0
:1005200002F0E6F95946544801F0CCFF01231800C7
:100530003A7A594690407A7A9340184301F0ECFF9A
:100540004F495A468C4641464968D20062440029C8
:1005500065D063684846196820234931FF31C05C83
:1005600001F0EAFE606800230122032102F0C0F9D5
:10057000002163683E4A1B7921209B0099506368E3
:1005800019684B460A0049314C32FF31185C01F0C2
:10059000D3FE64E701F010FF21239B464B465A46E9
:1005A000985C01F009FF3900334801F08BFF4346A6
:1005B0001A7A0123180090404246527A390093403B
:1005C000184301F0A9FF2D4B2E009C4663682020A4
:1005D00019684B465036B600FA0062448919185C17
:1005E00001F0AAFE002300220321606802F080F9D6
:1005F00062685846137911682A005132FF3292001E
:1006000051581B4A9B009950636819684B460A0071
:10061000185C89194C3201F08FFE00261FE76368D1
:100620002F001968484620235037BF00C919C05C05
:1006300001F082FE606800230022032102F058F9D5
:1006400062684846137911682A005132FF329200DD
:100650005158074A9B0099506368196821230A0082
:10066000C05C4C32C91901F067FEF8E69400002026
:1006700098000020FC010020FFFFF0FF04F0014083
:1006800000F0014001F098FE21239B464B465A465C
:10069000985C01F091FE39002C4801F013FF4A46A6
:1006A000202359460120D35C9840535C01229A4094
:1006B0003900104301F030FF2A006368484619688A
:1006C000202310329200D2B28A184D31FF31C05C23
:1006D00001F032FE636841461B6849681A00A22394
:1006E000DB00D3580192DBB25A4253419B198B4233
:1006F0001CD34B465A4601209B5C3900984001F0C0
:10070000E1FE43465E60320000230321606802F090
:10071000EFF8380001F0C0FE63680D4A1B799B00BA
:100720009E50524663681B79D5542CE6584649467C
:10073000095C89464146086801F0F2FA0199020015
:100740004D31FF31484601F0F7FDDAE7FFFFF0FFDA
:1007500098000020F0B557464546DE464E46232316
:10076000E0B507680400FB5C83B00D000820022B95
:1007700075D1388B6421504302F064FB0304994621
:100780001B0C9A466E0073199B00FB185B680200F5
:100790009A456BD06068D74B01799B465B5CDBB2B6
:1007A000FF2B10D0FE2B00D1CBE051330068FF337C
:1007B0009B001F58D0488B001B5811209F424ED1E0
:1007C000FF2358464354FE23584643542368771961
:1007D0009846BF0047447B6892B2002B4ED14146F9
:1007E0002033C85C002A00D1BBE043469B699A4590
:1007F00000D2D6E001F0E0FD212342467619D05C1C
:1008000001F0DAFDB3009C462268019362441600B1
:10081000107A01F0D1FD707A01F0CEFD43469E6959
:10082000B24500D38FE04B461E0C00233200290056
:10083000606802F05DF8FF2259467E6063681B79AC
:10084000CA542268D269002A08D0AC4A5B00D31887
:1008500002225A556068022102F084F8002003B099
:100860003CBC90469946A246AB46F0BDFB69002BC6
:10087000F4D06268107998470020F0E74146896912
:1008800040468C462021405C6345ABD22223414642
:10089000CE5C002A00D1E8E0E24500D25DE101F043
:1008A0008BFD2123994643464A46985C01F084FD1E
:1008B0003100934801F006FE012318003A7A310016
:1008C00090407A7A9340184301F026FE43469B6994
:1008D00020209A468B4BF2009C466368624419685C
:1008E00043464931FF31185C01F026FD0023012207
:1008F0000321606801F0FCFF002163687E4A1B79D8
:1009000048469B0099506368196843460A0049317C
:10091000185C4C32FF3101F00FFD53461E04360CBB
:1009200020234246D05C01F02BFD21234246D05CBF
:1009300001F026FD7E600322594663681B79CA5484
:100940007FE711208BE72268019B94466344997AE4
:1009500038684B1E99413604C9B201F0F1F9360CE2
:1009600063E701F029FD42462123D05C01F024FD1C
:10097000236876199846B600B0444346187A01F0C9
:100980001BFD4346587A01F017FD236838689C46E2
:100990006644B17A00264B425941C9B201F0D0F900
:1009A00043E742462223D35C7619994601F004FDC1
:1009B00042462123D05C01F0FFFC2268B600944639
:1009C000B4446346187A019301F0F6FC019B464457
:1009D000587A01F0F1FC002352462900606801F0CA
:1009E00087FF4946464801F06DFD01231800327A21
:1009F00049469040727A9340184301F08DFD424978
:100A00004A468C467968D2006244002900D17DE0D4
:100A100063684046196820234931FF31C05C01F00A
:100A20008BFC002301220321606801F061FF00219B
:100A30006368314A1B7921209B00995063681968CB
:100A400043460A0049314C32FF31185C01F074FC16
:100A500020234246D05C01F093FC21234246D05C27
:100A600001F08EFC53467B6065E701F0A5FC212375
:100A70009A4643465246985C01F09EFC310020485D
:100A800001F020FD012318003A7A310090407A7A73
:100A90009340184301F040FD290050318B009946E6
:100AA000184B20209C466368F20019684346624454
:100AB0004944185C01F040FC0023002203216068D7
:100AC00001F016FF62685046137911682A0051320E
:100AD000FF3292005158084A9B00995063680026E3
:100AE000196843460A00185C4C32494401F024FC62
:100AF00016E7C0469400002098000020FC0100206A
:100B0000FFFFF0FF04F0014000F0014063682E0099
:100B10001968404620235036B6008919C05C01F0A0
:100B20000BFC606800230022032101F0E1FE6268F3
:100B30004046137911682A005132FF329200515811
:100B4000374A9B0099506368196821230A00C05CEA
:100B50004C32891901F0F0FB7AE701F02DFC2123DA
:100B6000994643464A46985C01F026FC31002D48E0
:100B700001F0A8FC4246202349460120D35C98405E
:100B8000535C01229A403100104301F0C5FC2A0059
:100B9000636840461968202310329200D2B28A1846
:100BA0004D31FF31C05C01F0C7FB636879681B6899
:100BB0001A00A223DB00D3580192DBB25A42534100
:100BC00053448B421DD343464A4601209B5C31006F
:100BD000984001F077FC53467B6052460023032186
:100BE000606801F085FE300001F056FC51466368F4
:100BF0000B4A1B799B0099505A4663681B79D55460
:100C00001FE648464146095C3868884601F088F886
:100C1000019902004D31FF31404601F08DFBDAE7CA
:100C200098000020FFFFF0FFF0B54E464546DE4637
:100C30005746E0B5914687B005000E1E00D1D8E1B9
:100C40002323082204689046E35C002B00D081E156
:100C500001F016FB002804D004239846852800D014
:100C600078E100F0ADFF002800D1C5E1FF2321228B
:100C7000202700212000E355A3540132A354233A36
:100C8000E172237263722260E17522756375E2601E
:100C9000223001F0ABFB002800D061E220002030C0
:100CA00001F0FAFA002800D00EE22000213001F015
:100CB000F3FA002800D007E233689A4601336FD078
:100CC00023232F68FB5C002B00D04BE1327A7B6042
:100CD00004AB984603234146BA720B702B6803920B
:100CE0009B7A50465A4253414B7001239B464346E0
:100CF00059469970414600F06DFF002800D034E25B
:100D0000534651463B605B468B40A021039AC90580
:100D1000002A00D02DE2A122D2008B5038000830EA
:100D200001F0BAFA002800D01FE23800093001F0C3
:100D3000B3FA8046002800D017E2387A01F03CFB75
:100D4000787A01F039FBA022520092463B7A38684B
:100D50009B466B681B689A4400F0E2FF5146020014
:100D6000584601F0E9FAA422520092467B7A38688C
:100D70009B466B681B689A4400F0D2FF5146020004
:100D8000584601F0D9FA01234146FB726B68C84A04
:100D90001B7928005B00995400220021FFF784FA98
:100DA00073689A4604AB9846534601336DD02323AB
:100DB0002F68FB5C002B00D0D4E0727A41463B6187
:100DC0000323BA750B702B6803929B7D50465A42E1
:100DD00053414B7001239B46434659469970414607
:100DE00000F0F8FE002800D0BFE153465146FB60FA
:100DF0005B468B40A021039AC905002A00D1BBE1C4
:100E0000AC4A8B503800143001F046FA002800D06C
:100E1000ABE13800153001F03FFA0390002800D014
:100E2000A3E1387D01F0C8FA787D01F0C5FAA2226D
:100E3000520093463B7DF8689A466B681B689B445A
:100E400000F06EFF59460200504601F075FAA422E8
:100E5000520093467B7DF8689A466B681B689B44FA
:100E600000F05EFF59460200504601F065FA01238A
:100E7000FB756B6801211A798D4B52009B18039A00
:100E800028005A700022FFF70FFA33698A4A93420A
:100E900000D875E15908914200D873E19908914250
:100EA00000D872E1D908914200D871E11909914244
:100EB00000D870E15909914200D86FE19909914237
:100EC00000D86EE1D909914200D86DE1190A91422A
:100ED00000D8C0E05B0A0921934200D8BCE0434639
:100EE000424619700023537093700333D3706B68BC
:100EF00041461B7968685360704A01F051FC804696
:100F0000002800D080E06B68FF271A68A223DB006E
:100F1000D35836693B403601DE40A661686801F06F
:100F2000E3FC012332009A460093022103336868F0
:100F300001F0F2FC0221686801F026FD4B46E361F6
:100F40006B685F4A1B7999008D505E4AD754232302
:100F50005246E254404607B03CBC90469946A246F1
:100F6000AB46F0BD082398462023F85CFF2800D04C
:100F7000F3E02123F85CFF2801D001F0C3F922231C
:100F8000F85CFF2801D001F061FA387AFF2803D01D
:100F900001F0B8F9FF233B72787AFF2803D001F003
:100FA000B1F9FF237B723868431C04D000F078FE4F
:100FB00001235B423B600023387DFB72FF2803D096
:100FC00001F0A0F9FF233B75787DFF2803D001F0E5
:100FD00099F9FF237B75F868431C04D000F060FE8C
:100FE00001235B42FB600023FB75686801F03AFC5B
:100FF000B0E70B239846ADE700F0B0FD002800D124
:1010000034E603239846A5E720232C68E05CFF28FC
:101010004AD12123E05CFF2843D12223E05CFF2852
:1010200031D1207AFF2829D1607AFF2821D1206888
:10103000431C18D10023207DE372FF280ED1607D70
:10104000FF2829D1E068431C20D10023E37568689C
:1010500001F008FC7EE70821C9B240E701F052F92F
:10106000FF232375EBE700F01BFE01235B422360A7
:10107000E0E701F047F9FF236372D8E701F042F996
:10108000FF232372D0E701F0E1F9CAE700F008FE80
:1010900001235B42E360D8E701F034F9FF23637575
:1010A000D0E701F02FF9B8E701F02CF9B1E7C0461D
:1010B000FC0100200C050000FF0F000045020000AD
:1010C000880000209400002020232C68E05CFF288A
:1010D00001D001F017F92123E05CFF2801D001F0D5
:1010E00011F92223E05CFF2801D001F0AFF9207A4A
:1010F000FF2803D001F006F9FF232372607AFF284E
:1011000003D001F0FFF8FF2363722068431C04D072
:1011100000F0C6FD01235B4223600023207DE372C3
:10112000FF2803D001F0EEF8FF232375607DFF2830
:1011300003D001F0E7F8FF236375E068431C04D097
:1011400000F0AEFD01235B42E3600023E3756868B5
:1011500001F088FB04239846FCE601F0D3F808E789
:101160002C68E05DFF28B6D0B3E704232F689846CB
:10117000FAE60F4A8B50D1E5A122D2008B5041E60E
:101180000021ACE60121C9B2A9E60221C9B2A6E656
:101190000321C9B2A3E60421C9B2A0E60521C9B260
:1011A0009DE60621C9B29AE60721C9B297E6C04674
:1011B0000C050000F8B500274368294E1B79056827
:1011C0005B00F754EB7A0400002B2DD100276368F5
:1011D0001B795B00F6187770EB7D002B17D1FF2190
:1011E0006068204A0379D15403681F4A934228D08B
:1011F0001E4A93422FD01E4A934227D001F074FB1F
:10120000606801F063FB23230222EA54F8BD2368DF
:10121000E868997D4B425941C9B200F091FDE868F8
:1012200000F062FD2F61DAE703682868997A4B4283
:101230005941C9B200F084FD286800F055FD6F6087
:10124000C4E701220B4B1A606068D7E701220A4B02
:101250001A606068D2E70122084B1A606068CDE727
:10126000FC0100209400002000800040009000401D
:1012700000A000400C8C00400CAC00400C9C0040D6
:10128000A021F0B50023C6462B4A490000B55350B3
:101290000431535004315350043153504C3953509E
:1012A00004315350254B1B68002B35D024490026B0
:1012B0005458244A244F1268A41A00222402240AF3
:1012C000904602E0002D18D02B001A68A24214D8D4
:1012D000A41AB6181A7CDD69002AF3D0424699692F
:1012E0001A745A693B68002B1FD0100098470028D9
:1012F000E8D0FEF789FF002DE6D11449144A0B7897
:1013000012789A420BD0134A9B009E508021802372
:10131000114A5B004903D15004BC9046F0BD013234
:10132000D3B2022B04D00B70EDE708009047C9E759
:1013300000230B70E7E7C04600100140C400002006
:1013400004050000C0000020A4000020BD00002013
:10135000BC000020B400002000E100E0F0B54E46E3
:10136000DE4657464546E0B5C74BC84A1B68C849E4
:1013700099460978137889B0994200D176E1013312
:10138000DBB2022B00D15EE11370C24A9B009D5874
:101390004B465B191B02BC4A1B0A059313600123D1
:1013A0000493BD4B00201E78BC4B37001B689A4647
:1013B000B94B5B789846B84B5B680193B64B9B780A
:1013C0000293B74B1B781A000792002206939346AC
:1013D0005346009247451DD001997A00D2198C4698
:1013E00001370299FFB2791A4C1EA141D20049423D
:1013F00062440F401178022900D19CE00329E9D111
:10140000002BE7D01874DB69002BFBD1012200927E
:101410004745E1D1009A94465A46002A00D0E8E1B7
:101420006246002A00D0E1E19C4B049A1B680593B8
:10143000002A00D020E15246D31A5A1E93410024BC
:10144000DBB20493904B00961B689946059B9C4623
:10145000002303939A469846924B65469B46002C80
:1014600030D06268A1682000E4694B46D31A1B02A1
:101470001B0A5B4556D85B18036042464260826097
:10148000012202744246C261002D00D18CE02A681C
:101490009A4200D381E0009E2900844603E00A6856
:1014A0009A4200D384E00800C9699B1A0029F6D14A
:1014B000020060469446009603606346C161D861AD
:1014C000002CCED15246009EB7427BD0019A7300C9
:1014D0009B1994460136029AF6B2921B511E8A411C
:1014E000DB00634419785242164001220129EBD1F6
:1014F0005868027C002AE7D192469A6800964260BA
:10150000D96881601E69C6605B698361069B002B98
:1015100055D052469A464B46D31A1B0242601B0ACC
:101520005B45A8D94B469A1A1202120A8A4228D25F
:101530008B1A0360A1E75468002B00D14AE79C4254
:1015400000D182E0009A1900944602E0944206D04D
:101550001100CA69002AF9D1624600923AE7624650
:10156000039100928C4200D171E022680399E469F2
:10157000CC61002C00D12DE721688C4662442260AA
:1015800028E74346036043608360012303744346B6
:10159000C361002D08D000232A68D31A2B600123D1
:1015A000C561039305005AE701230500039356E73D
:1015B00000960600D21A60460A60B4467CE7012312
:1015C0009A4652E7AC46002A00D01EE1039B002B4E
:1015D00000D016E1314B059A1B68934202D1049A60
:1015E000002A24D0002B00D1CCE02F4A2F48304CC9
:1015F00081584A468A1A12022578120A1B68033259
:10160000002D00D191E093421BD3A8244B442748DE
:101610001B021B0AE400244D035142595B1A521A63
:101620001202120A1B0203321B0A9A4263D80023D9
:101630001B4A137009B03CBC90469946A246AB4683
:10164000F0BD1300E1E700239EE61C000393012296
:10165000DB690092002B00D087E70121134A9160DB
:10166000002205920132934607927EE74B4605938E
:1016700000230025049394E600240020B4460022B1
:101680000021804626002BE0C0000020BC00002086
:10169000BD000020B4000020A8000020C4000020ED
:1016A000B0000020FEFF7F00040500000010014094
:1016B000B10000201868A84200D95CE042462D1A0B
:1016C0000918D8681A60DC69002807D04A46DE612C
:1016D0001E0052181202120A5A6098602300049ADF
:1016E000002BE7D134006646002A00D1AAE64A4A18
:1016F00005931360A6E6435948490351484B1A68BD
:101700002F23C046C046C046C046C046C046C0465D
:10171000C0468A4200D0C046013BF2D180238021DE
:10172000404A5B008902D15081E78025D1266D02B5
:10173000B6008551403E8551C0278026394DB602FE
:101740007F00EE512E60012505603548334F066855
:101750002F20C046C046C046C046C046C046C04610
:10176000C046BE4200D0C0460138F2D12570934237
:1017700000D34AE765E734006646002A48D1451B96
:101780001D605FE6802080222649800288508022EA
:10179000D22001252449520280000A5040380A50C4
:1017A0001F4A4D6010682F221C4C1600C046C046D0
:1017B000C046C046C046C046C046C046A04200D053
:1017C000C046013EF2D18D6018490B60C046C0464C
:1017D000C046C046C046C046C046C046A04200D033
:1017E000C046013AF2D1124A137020E70A4A136048
:1017F0001AE61049079A05980A700C490692086083
:101800000EE66246044B1A60E4E60B4B1F70DDE601
:10181000014A05931360B2E7C40000200024F400DD
:101820006000002000E100E000100140C000002046
:10183000B1000020B0000020A800002072B6024ACB
:101840001368013313607047C8000020034A13680F
:10185000013B1360002B00D162B67047C800002026
:101860000848704502D1EFF3098009E0EFF30880E2
:101870000549064A884201D8904201D88D46002089
:10188000034B1847FDFFFFFF0040002000380020F9
:10189000B1180000BFF34F8F034B044ADA60BFF367
:1018A0004F8FC046FDE7C04600ED00E00400FA059A
:1018B00010B5FFF7EFFF10BD03688068596800227C
:1018C000814200D24A1C1868801A43425841C0B273
:1018D0007047C046F8B5040000200D00FFF7AEFFCA
:1018E0002268A06853680021984200D9591C1068EA
:1018F00088422ED05160E2686168022A39D0022AFB
:1019000013D9042A3FD0082A37D12E686F68DB002C
:10191000C9180E604F6022685068136898420DD253
:10192000A16801310918CB1A09E0012A25D12A78CA
:10193000CA542268506813689842F1D3C31A916858
:101940000024994200D293600020FFF77FFF20001F
:10195000F8BD207C00281AD151602068A668026872
:10196000511CB242924111400160E2686168022A52
:10197000C5D12A885B005A52DBE75343C8182900B7
:1019800001F0ECFAD5E72A689B005A50D1E704240D
:10199000DAE7C046F0B5264B85B0DA68002A14D1E4
:1019A0002449C2200A600121234C80002150F930D3
:1019B000FF302250A12201A80170D200A2589974D0
:1019C00082801B68984705B0F0BD00241949A02605
:1019D0000C60A1211848F6008451C9004758597C71
:1019E0004D00AF5201311D7CC9B25974A9420BD2CE
:1019F0009A685268002A13D09A6012680F4BC2503E
:101A0000012383510360DEE7C2260121B600815124
:101A100001A899740470426005811B689847D2E759
:101A20005A689A601268054BC25001238351CAE775
:101A3000CC00002000710040007000400405000050
:101A400010B51A4B1A68002A14D0002280211A609F
:101A5000C2220123164CC90592008B506370A36803
:101A6000002B07D01A6800205B68A2609847A36823
:101A7000002BF7D10F4B1A68002A15D000221A60EC
:101A80008022C22302219B00D205D1500123084CA1
:101A9000A3702369002B07D01A6801205B682261BC
:101AA00098472369002BF7D110BDC04600010040C4
:101AB000E00000200401004010B5024B1B6898476D
:101AC00010BDC046FC00002010B5024B1B689847B3
:101AD00010BDC0460401002010B5024B1B6898479A
:101AE00010BDC046F400002010B5FFF7A9FF00F0BC
:101AF000B1FB10BDFF22032330B51400C5B22B404B
:101B0000DB009C4089010A40E4439A40002814DB32
:101B1000104B80089C46C023800060449B00C15845
:101B20000C402243C2501F23C0211D401E3BAB402E
:101B3000084A49005350136030BD0F2306492B401B
:101B40008C46083B9B089B006344D9690C402243A8
:101B5000DA61E8E700E100E000ED00E070B544255F
:101B6000144C665D002E22D101235B42236063602A
:101B7000A360E36023616361A361E3612362636245
:101B8000A362E36223636363A363E36323640321C8
:101B90000620FFF7AFFF084B80211E60C123074AD4
:101BA0009B000906D15001230020635570BD082019
:101BB000FCE7C0460C0100207C6100400060004052
:101BC0004423034AD05C431E9841C0B27047C046CC
:101BD0000C010020F0B500252D4C03002218203206
:101BE0005557082001350FD1887800280DD022687C
:101BF000013246D06268013245D0A268013244D039
:101C0000E2680420013218D0F0BDFE2010700122DD
:101C1000A02049789A40C00501290AD01D494250A8
:101C2000A0220321C133FF339B00D205995000202D
:101C3000EAE7A121C9004250F2E70138E218164D47
:101C400020321070AC460022A2258000ED00225008
:101C500060444659114F0A783E40C0271204BF0223
:101C60003A4080274C787F0324053C40F8274651B2
:101C700022437F011C0246593C40224332434251D9
:101C8000C5E70020DAE70120D8E70220D6E7C04602
:101C90000C0100200C05000000600040FFE0ECFF9C
:101CA00010B50F4B1A182032127852B2D1B2032954
:101CB00009D80124890064425C5000244532FF3277
:101CC000084992005450FF221B1820331A70A02399
:101CD000C130FF308000DB05FD3AC25010BDC04668
:101CE0000C010020006000400A4B0B4A181820230A
:101CF0009446A222032110B5C356D2009B00634430
:101D00009C580648214320439850C046C046C046D0
:101D1000995010BD0C01002000600040031F00001E
:101D2000054B1818054B20309C46007840B28000C7
:101D3000C0B260447047C0460C0100200060004003
:101D4000094B10B518182023084AC3569446A22000
:101D50004C1EA1419B006344C0001A58044C090565
:101D600022401143195010BD0C01002000600040BA
:101D7000FFFFEFFFF0B5DE4657464E4645460021D1
:101D8000E0B5CB4A87B0039113680024012B00D142
:101D900048E1C84B1A68012A00D150E1C64B1A68C5
:101DA000012A00D15BE1C54B1A68012A0FD0C44B50
:101DB0001B68012B00D15EE1230717D1002C34DB17
:101DC00007B03CBC90469946A246AB46F0BDC12246
:101DD000BC499200895808220A42E8D000211960C3
:101DE000B74B14431B68012B00D144E11F239946D4
:101DF000B54BA227012600259846FF0026420ED0AB
:101E00004946B04AAB009A18D059000A0840D15947
:101E10004246D3588903890F002B00D098470135DB
:101E20007600042DEAD1002CCADA00230493013B8A
:101E3000059341339846C026A34C4346E1564B1CBC
:101E40002CD007230127C9B208000B409F40B043A4
:101E5000C20805AB9B5C1F4220D0231820331B789F
:101E600089095BB29B00E3589B46002B00D16CE1D3
:101E7000032900D16CE1A025ED05A9468300994412
:101E8000E0234D46DB00EB5803ADAA5C9B039B0FA0
:101E9000174200D027E1032B00D16DE10027412339
:101EA000E1564B1C37D007230125C9B20B409D409A
:101EB00008002B00B043C20805ADAD5C2B422AD010
:101EC0002518AC462025A946CC4465462D788909BD
:101ED0006DB2AD0065590191A946002D00D126E1F2
:101EE000032900D126E18500AA46A025ED05AC46D0
:101EF000E025ED00E244AC46554661466958890349
:101F0000890F8C4603A98A5C134200D0F2E0634635
:101F1000032B00D179E14223E1564B1C37D0072334
:101F20000125C9B20B409D4008002B00B043C208F8
:101F300005ADAD5C2B422AD02518AC462025A9461C
:101F4000CC4465462D7889096DB2AD006559019183
:101F5000A946002D00D101E1032900D101E185004E
:101F6000AA46A025ED05AC46E025ED00E244AC46CE
:101F70005546614669588903890F8C4603A98A5CD6
:101F8000134200D084E06346032B00D126E14323B3
:101F9000E1564B1C36D007230125C9B20B409D40AA
:101FA00008002B00B043C20805ADAD5C2B4229D020
:101FB0002518AC462025A946CC4465462D788909CC
:101FC0006DB2AD0065590191A946002D00D1A0E088
:101FD000032900D1A0E08500AA46A025ED05AC4666
:101FE000E025ED00E244AC46554661466958890358
:101FF000890F8C4603A98A5C134267D16346032B81
:1020000000D1D2E0002F00D1DAE6A022A223D2052F
:10201000DB00D358039A934200D1D1E60393049B8B
:1020200005930AE7C120274C800024581C4000D1AA
:10203000AFE6204B11601A68012A00D0AEE6C1223B
:1020400020499200895802220A4200D1A6E60021C6
:102050001960194B14431A68012A00D0A3E6C12263
:1020600018499200895804220A4200D19BE60021B7
:102070001443196097E60022114B1A6080231B0657
:102080001C43A022A223D205DB00D358039393E67E
:102090006346022B00D07AE7019B032B00D1D3E0EB
:1020A0004B46002B00D172E70199C8476FE7C04645
:1020B0000061004004610040086100400C61004084
:1020C0007C610040006000400C0100206346022B50
:1020D00098D1019B032B00D1AEE04B46002B91D051
:1020E0000199C8478EE7022B00D0D7E6032959D0C3
:1020F000002751E06346022B00D00CE7019B032B25
:1021000000D19DE04B46002B00D104E70199C84760
:1021100001E7032900D075E704A98C469444614681
:10212000097819438A46614655460D7053E70329DD
:1021300000D0F0E604A98C4694446146097819431E
:102140008A46614655460D70CDE6032900D0A5E6C6
:1021500004AB9B181D783D431D708CE6032900D00D
:1021600015E704A98C4694446146097819438A46C8
:10217000614655460D70F2E60329B9D180229202DC
:10218000E0234D46DB00EF58314D2F404D46EF50D8
:10219000EF581743EF5001275B46002B00D17EE636
:1021A000D8477CE6C0229202EAE7019B032B94D138
:1021B00080239B029C46E0235246DB00D2582449F0
:1021C00001370A405146CA50CA5861460A4351462F
:1021D000CA504B46FFB2002B82D116E7019B032B5E
:1021E00000D05DE780239B029C46E0235246DB0043
:1021F000D258174901370A405146CA50CA58614659
:102200000A435146FFB2CA504AE7019B032B00D054
:1022100078E780239B029C46E0235246DB00D2589D
:102220000B4901370A405146CA50CA5861460A4311
:102230005146FFB2CA5065E7C0239B029C46BAE7ED
:10224000C0239B029C46E7E7C0239B029C46CCE749
:10225000FFFFFCFF8022C12310B5D2059B00D3589D
:102260005B0708D5044B1A68002A04D000221A60C4
:10227000024B1B68984710BD080100405401002024
:10228000044B1A78002A03D1002001321A707047DB
:102290008520FCE75C010020F0B54F464646D64657
:1022A000164BC0B58146164E00240127984607E01C
:1022B00000200134FFF7CAFAAE43E4B2002E1AD070
:1022C0003D00A5400020FFF7B9FA2E42F0D043466A
:1022D0001B681A002A409246EAD11D4343461D60FE
:1022E0004B4600201C70FFF7B1FA50461CBC9046CC
:1022F0009946A246F0BD04239A46F6E7580100200D
:10230000FFFF000010B501248440072023040ED0F5
:10231000A123074ADB00D4500020FFF78FFA054ABB
:1023200000201368A3431360FFF790FA002010BD4C
:1023300000F001405801002010B5002914D0002AF7
:1023400012D0012383401C0410D00A4C24681C4284
:102350000ED0094BC0009C46A2236044DB00C15054
:10236000064BC250002000E00E2010BD0720FCE705
:102370000820FAE75801002000F001401405000091
:102380000123F0228340120313420CD11A0404D11A
:1023900000200649064A8B507047064A12681A42C6
:1023A000F6D10820F8E70720F6E7C04600F0014024
:1023B00004050000580100200123F022834012038D
:1023C00013420DD11A0405D1A12200200549D200E3
:1023D0008B507047044A12681A42F5D10820F8E77A
:1023E0000720F6E700F0014058010020F8B5474605
:1023F000CE46154B80B5814600240F25012798460F
:1024000007E000200134FFF721FAB543E4B2002DC4
:1024100017D03E00A6400020FFF710FA3542F0D05A
:1024200043461B781E42ECD11E4343461E704B466A
:1024300000201C70FFF70AFA00200CBC9046994659
:10244000F8BD0420F9E7C0465D010020012370B506
:102450001D000F2485402C40621E944106220C4E24
:10246000644294433278073415420FD0094AC000C1
:102470009446604443600020FFF7E0F93378002081
:10248000AB433370FFF7E2F9200070BD0824FBE78F
:102490005D01002000F00140012213008340190774
:1024A0000AD0064909780B4204D0054BC000C2503F
:1024B000002070470820FCE70720FAE75D010020B4
:1024C00000F0014001238B4070B505000C001A0795
:1024D0001BD00F4A1278134215D0F0231B0307209C
:1024E0001D420FD10020FFF7A9F90A4B80229C461C
:1024F000A40064441201A3580020AB43A350FFF78B
:10250000A5F9002070BD0820FCE70720FAE7C046C7
:102510005D01002000F0014001238B4070B50500F3
:102520000C001A071BD00F4A1278134215D0F02363
:102530001B0307201D420FD10020FFF77FF90A4B34
:10254000A4009C46802364441B01E25800201543EC
:10255000E550FFF77BF9002070BD0820FCE707205D
:10256000FAE7C0465D01002000F0014000B5264BAF
:1025700083B01A68002A13D0C121244A8900515817
:10258000C9070DD500211960802369465B000B80C7
:102590001F4BD3588B701F4B00981B6801999847AD
:1025A0001D4B1A68002A18D0C121184A89005158B9
:1025B000890712D500211960822369465B000B80D0
:1025C000A323DB00D3584B80A923DB00D35800980A
:1025D0008B80104B01991B689847104B1A68002A92
:1025E00010D0C122094992008A5852070AD5002208
:1025F0001A6084236A465B001380064B00981B68B0
:102600000199984703B000BD00210140002001401E
:102610000C05000060010020042101400821014058
:10262000F0B5114B83B01A68002A06D0C2260125E6
:102630000E4CB600A259154201D103B0F0BD0022E4
:102640001A60A1236A460A4FDB00E358D11D380007
:102650000B70FFF73FF93800FFF72EF90028ECD098
:10266000044BA5511D60E8E700D1004000D00040B8
:102670008C2F000004D00040F0B5C646224B8025C8
:10268000C1270024984600B5204E6D02BF00F359C3
:102690001D4210D01E4BE3189B001A68002A0AD076
:1026A000D2229200B550403AB55000221A604346FB
:1026B000E0B21B68984701346D00032CE7D1C122BA
:1026C000124B92009A58D2070AD58022520099588C
:1026D000002905D0002199500B4B04201B68984716
:1026E000C1220A4B92009A5892070AD582225200C0
:1026F0009958002905D000219950034B05201B68EB
:10270000984704BC9046F0BD9401002000B0004002
:10271000502C0010002210B5034B012019881A809C
:10272000024B1B68984710BD98010020A4010020AF
:10273000002210B5034B022059885A80024B5B6877
:10274000984710BD98010020A4010020002210B578
:10275000034B032099889A80024B9B68984710BDD1
:1027600098010020A4010020002210B5034B042092
:10277000D988DA80024BDB68984710BD98010020A9
:10278000A4010020002210B5034B052019891A81ED
:10279000024B1B69984710BD98010020A40100203E
:1027A000F8B54746CE4680B503792C4E5D00984675
:1027B000EB189B000F00F1180400087A002849D19B
:1027C000002A49D0F2507B684B606379002B0DD012
:1027D0000023002120689A0084464132FF3262447F
:1027E000116001336279DBB29A42F3D82368F97839
:1027F000180B40B2FFF77EF90122236818494544BF
:1028000058587B789043134003432068AD004350F1
:10281000A123DB009C4661462368751958580323A1
:1028200099464946BB7888430B400343604621687C
:102830000B500F239C463B7867462468083021588C
:102840003B40B9430B43235000202A720CBC9046F6
:102850009946F8BD0820F9E70720F7E7B8010020FE
:102860000405000030B5012529000368154ADB0383
:10287000DB0E99408023D15002688133FF33D15859
:102880000021D150012201680933FF335242CA505E
:1028900004790D4963001A1992008A18127A022AE3
:1028A00009D103681D61027953009B189B00CB1866
:1028B0001D720479630000221B199B00CB181A7249
:1028C00030BDC04600E100E0B801002001220368ED
:1028D0001A60027953009B18024A9B00D318022207
:1028E0001A727047B801002001220368DA6070474D
:1028F00030B5802464028C400568002B08D1C223C7
:102900009B00EC5051310368FF318900CA5030BD43
:10291000C1239B00EC50F5E7F0B5022705AC247805
:10292000FF37A44680248F400668A4003559BD4374
:10293000355105682E5933432B51802364465B0281
:102940008B40002C09D1C2240568A4002B515131C1
:102950000368FF318900CA50F0BDC1240568A40096
:102960002B51F4E70B0002685033944600229B0081
:102970009BB263441A608023C1225B028B400068D3
:10298000920083507047C0468023C2225B028B4076
:102990000068920083507047F0B5C646104BC127BF
:1029A0000025984600B50F4C0F4EBF000F4BE018A6
:1029B000236880B2002B0BD04346DA5980235B0298
:1029C000AB401A4204D000232360716833689847F3
:1029D00001350434042DE9D104BC9046F0BDC04655
:1029E0000080004040810040B80100200080FFFFCF
:1029F000F0B5C646104BC1270025984600B50F4CD0
:102A00000F4EBF00E023DB01E018236880B2002BEB
:102A10000BD04346DA5980235B02AB401A4204D004
:102A2000002323603169F368984701350434042D8D
:102A3000E8D104BC9046F0BD0090004040910040B9
:102A4000B8010020F0B5C646104BC12700259846B6
:102A500000B50F4C0F4EBF00C023DB01E018236808
:102A600080B2002B0BD04346DA5980235B02AB4087
:102A70001A4204D000232360F169B36998470135F5
:102A80000434042DE8D104BC9046F0BD00A0004001
:102A900040A10040B8010020C12330B5614A9B002D
:102AA000D35885B09B055ED592235B00D158002991
:102AB00059D00021D1508121E533FF338900D15015
:102AC000594B997E002901D101315160022269469A
:102AD0000A7090215348C9004258425069460392F7
:102AE000DA7D68460A72DA68196801920022DA759E
:102AF0001A765B6898478E214A4A49005358002B42
:102B000012D0494B9C8A987D844257D3002454505C
:102B1000002809D06A46107214709A689C7519686A
:102B200001925B6868469847A2233E4A5B00D158F1
:102B3000002916D00021D1503B4B997E002901D0AD
:102B400001211160DA7D002A0BD0002268460121A4
:102B5000DA755A7E01700272DA68196801925B6850
:102B6000984705B030BDC1232E4A9B00D3585B0760
:102B7000C1D5842149005358002BBCD02A4BD87DA5
:102B8000002827D15050A321C90052585A7E8242B2
:102B9000B1D11A7E1968002A2AD0DA751A69D86864
:102BA000DA6000226D465C7E1A765A760132019018
:102BB0002A702C725B68684698479CE7002050504A
:102BC000998A9868405C998A013189B29982174B39
:102BD000D050A9E700205050A320C000597E1258C1
:102BE000D86842545A7ED87D0132D2B25A76CDE7A7
:102BF0009A7E002A02D101200A4A5060C222812412
:102C000008489200A400845000226C460120DA7526
:102C10005A7E20702272DA68684601925B68984793
:102C200069E7C04600200040DC0100201C050000D0
:102C3000C12310B5054A9B00D358DB0705D50022F8
:102C4000034B1A60034B1B68984710BD00000140FE
:102C500000010140F80100207047C046F0B5C646AB
:102C600000B592B06A461100254B11CB11C109A9DC
:102C7000029104A903920A0031CB31C211CB11C2D7
:102C80000123204A02A84B72FDF7CEFF002801D095
:102C9000FDF7BAFA02A8FEF78DFA1B4B1B4F9846B8
:102CA0001B4E0025AC00132D25D86419A4B22200B8
:102CB000002102A8FDF74EFD1128F8D022000121C5
:102CC00002A8FDF747FD1128F8D043461A683300E3
:102CD000C046C046C046C046C046C046C046C046C4
:102CE000BA4200D0C046013BF2D10135282DD8D0E0
:102CF000AC00132DD9D96442641BC834D6E7C04652
:102D0000A02F0000592C0000600000200024F400D7
:102D10001027000003210A4802680A43026009489C
:102D200002680A4302600849084A094B9B1A03DDFE
:102D3000043BC858D050FBDC00F012F8FDF7E4F972
:102D40002405004054050040C82F0000000000206A
:102D50006C000020FEE7FEE7FEE7FEE7FEE7FEE789
:102D60002E4B1B78012B00D070472D4B1B681B0787
:102D7000FAD1F0222B4B1B68134027D12A4B1B683A
:102D800013422BD0264B1B681B07EDD1F022254B9D
:102D90001B681340402B2DD0F022224B1B681340A0
:102DA000A02B01D0D02BDFD1F0231F4A12681A428A
:102DB000DAD11E4A1368012B04D01D4B136013682F
:102DC000012BFCD1C0221B4B1A60CDE7102B01D088
:102DD000302BDBD1144B1B681342D7D1164B174A4B
:102DE0001A608022164B12021A600C4B1B78012BC2
:102DF000C8D0B9E70C4B1B681342CDD18022C12348
:102E00000121DB00D205D150044B1B78012BABD143
:102E1000034B1B681B07BFD0A6E7C046E00F00F0BE
:102E2000E40F00F0E80F00F0EC0F00F000EC0640BB
:102E30007593000014EC064004050040DFFF07C056
:102E4000186C0040002243088B4274D303098B4264
:102E50005FD3030A8B4244D3030B8B4228D3030C6A
:102E60008B420DD3FF22090212BA030C8B4202D30C
:102E70001212090265D0030B8B4219D300E0090A34
:102E8000C30B8B4201D3CB03C01A5241830B8B423D
:102E900001D38B03C01A5241430B8B4201D34B0326
:102EA000C01A5241030B8B4201D30B03C01A52418B
:102EB000C30A8B4201D3CB02C01A5241830A8B4210
:102EC00001D38B02C01A5241430A8B4201D34B02F9
:102ED000C01A5241030A8B4201D30B02C01A52415D
:102EE000CDD2C3098B4201D3CB01C01A5241830911
:102EF0008B4201D38B01C01A524143098B4201D34B
:102F00004B01C01A524103098B4201D30B01C01A75
:102F10005241C3088B4201D3CB00C01A52418308EF
:102F20008B4201D38B00C01A524143088B4201D31C
:102F30004B00C01A5241411A00D20146524110467C
:102F40007047FFE701B5002000F006F802BDC0465B
:102F50000029F7D076E770477047C046002310B5C8
:102F60009A4200D110BDCC5CC4540133F8E7000094
:102F7000F8B5C046F8BC08BC9E467047F8B5C046D8
:102F8000F8BC08BC9E467047000000208801002065
:102F9000640100202000000001000000000000008B
:102FA0000090004001040000120000000600000034
:102FB0000000000002000000881300000000000074
:082FC00048D1FF7F0100000071
:102FC80000000000000000000000000000000000F9
:102FD80000000000000000000000000000000000E9
:102FE80000000000000000000000000000000000D9
:102FF80000000000000000000000000000000000C9
:1030080000000000000000000000000000000000B8
:1030180000000000000000000000000000000000A8
:0C3028000024F400E9000000C1000000DA
:0400000300002D15B7
:00000001FF
