:020000021000EC
:10C00000004000205D010200990102009B01020036
:10C010000000000000000000000000000000000020
:10C020000000000000000000000000009D01020070
:10C0300000000000000000009F010200A1010200BA
:10C04000A3010200A3010200A9020200A301020051
:10C05000A301020000000000D1070200A3010200BA
:10C06000A3010200A3010200A3010200A301020038
:10C07000A3010200A3010200A3010200A301020028
:10C08000A3010200C10A0200A3010200A3010200F1
:10C09000A30102006DEB0100BDFF0100A30102003E
:10C0A000A3010200A3010200000000000000000044
:10C0B0000000000000000000000000000000000080
:10C0C00010B5064C2378002B07D1054B002B02D06E
:10C0D000044800E000BF0123237010BD8028002029
:10C0E000000000008C230200044B10B5002B03D08D
:10C0F0000349044800E000BF10BDC0460000000036
:10C10000842800208C230200164B002B00D1144BF6
:10C110009D46402292029A1A924600218B460F4673
:10C120001348144A121A04F0D2FE0F4B002B00D011
:10C1300098470E4B002B00D09847002000210400A8
:10C140000D000D48002802D00C4800E000BF04F0AC
:10C1500063FE2000290003F0DDFF04F047FEC04627
:10C160000000080000400020000000000000000067
:10C1700080280020742E0020000000000000000035
:10C1800002000B00F0B5126889B0019203AA1500F5
:10C190001E004068016809688C4692CE92C5DB6833
:10C1A0000199D36000231361E04709B0F0BD00009E
:10C1B000F8B5002817D1164D2E68002E11D1083081
:10C1C00004F0CCFD06604660124E04003368002B7C
:10C1D00002D102F0A9FC306023682C609B00F35868
:10C1E00063602868F8BD01270B4E3578BFF35B8F7D
:10C1F0003D400A4C01D02000F4E7300004F0C0FDBF
:10C200000028F8D030002760656004F0C6FDF2E732
:10C21000A0280020AC2800209C280020A428002072
:10C22000436810B50400002B02D1044804F0C2F9A1
:10C23000606803681B69984710BDC0465C1D02001A
:10C2400010B5FFF7EDFF10BD436810B50400002BDB
:10C2500002D1044804F0AEF960680368DB6A9847CD
:10C2600010BDC0465C1D0200F7B5FA26B60071434A
:10C27000009308AB1B7804000800134917000193D2
:10C2800005F0A4FA85B23000258078430E4905F008
:10C290009DFA009B80B2A380019B6080A371032D57
:10C2A00001D80423238080232288DB019A4200D90D
:10C2B0002380032801D80422628062889A4200D930
:10C2C00063802000FEBDC0467102000010B5036807
:10C2D000002B01D00800984710BD10B50368002B53
:10C2E00001D00800984710BD012210B5024B034849
:10C2F0001A7004F055F910BD0429002020290020EF
:10C30000F7B501920400C07F1D00C3180F0001267D
:10C310001D2B1ADCA9193200201804F0D8FDE07F8B
:10C3200032008019C0B2E0773900201804F0CFFD48
:10C33000E07F2A0080190026C0B2E077019920181A
:10C3400004F0BCFDE37FED18E5773000FEBDF7B5E6
:10C350000025C67FAE4205D9441967788F4204D1C3
:10C36000002C07D1FFF7CCFF17E0445D01342D19F5
:10C37000EDB2EFE7102906D014D807290ED802290C
:10C3800017D201290CD1455D013DEDB2AB4227D159
:10C390000023D9B28D421ED80120FEBD0A29F2D950
:10C3A0000220FAE71629EED00ED81229EBD0152973
:10C3B000F6D1F1181F29EFDC8119671CB94228D981
:10C3C0000E78CE540139F9E71929E9D31A29DAD9B7
:10C3D000FF29D8D0E4E7D05CE11888700133D8E7B2
:10C3E000761BF6181F2ED7DCAE1CA4190226764247
:10C3F000761B0196C67F8719BC4204D22678019F1E
:10C40000E6550134F6E702246442651B7619C677C7
:10C41000A8E70021CEB2B34204D9575C6618B770C2
:10C420000131F7E7425D9A184255C27F9B18C377E6
:10C430000020B2E70200010010B5036834320A316F
:10C440005B6D984710BD10B50400FFF7F3FF23683C
:10C45000211D9B6D2000984710BD10B50020FFF7EF
:10C46000A7FEFFF7EDFEFFF7EEFF10BDF8B50400E5
:10C470000D0016001F00092903D1036811005B6B32
:10C48000984720003B00320029000A30FFF75FFF89
:10C49000002802D12000FFF7CDFFF8BDF0B50379E9
:10C4A00089B0002B68D104682668002E64D1200072
:10C4B000FFF7C6FE036832495B6B98472000FFF721
:10C4C000BFFE08223100019004A804F000FD1420F2
:10C4D00004F044FC2B4B03AA03930300A2CAA2C39B
:10C4E000294B0661C360019BA4331A68002A45D119
:10C4F00018602000FFF7A4FE062302AA1371053B73
:10C50000060003AA0A301900FFF721FF002802D114
:10C510003000FFF78FFF2000FFF792FE002303712A
:10C520002000FFF78DFE0423184AFF21FFF79EFF2E
:10C530002000FFF785FE124A0F230921FFF796FF1F
:10C540002000FFF77DFE036805009B689847104BAD
:10C55000020018009A4203D92B6828009B6898476C
:10C56000FA239B0058430B4905F030F9E88020007E
:10C57000FFF766FEFFF767FF09B0F0BD0261B7E79E
:10C58000DF1D02005BC40100DBC20100B0280020F7
:10C59000B80B00007102000070B506000025AE4225
:10C5A00020DD0023104CE356013304D124220F492F
:10C5B0000F4803F0B7FFE368626864201A6004F074
:10C5C000B7F80023E356013304D124220749084871
:10C5D00003F0A8FF2369626864201A6004F0A8F8D9
:10C5E0000135DCE770BDC046082900207F1D020030
:10C5F000C71D0200F0B50026274C284B8BB0200049
:10C6000003211E6003F0DCFE2549200003F0DEFE5E
:10C61000244803F0ABFF3000FFF7CAFD31000400EF
:10C62000082201A804F053FC1F4B05A900936A4699
:10C630000B00A1CAA1C31D4B2000CB600E61FFF708
:10C640009FFD1B4E3378002B21D0164803F09AFF34
:10C6500064281CDD002320003370FFF7F1FD036820
:10C660005B6998470D4B0D4A1B682000013313602E
:10C67000FFF7E6FD0423094AFF21FFF7F7FE20003C
:10C68000FFF7DEFDFFF7DFFE0120FFF785FF20004B
:10C69000FFF7DAFDD5E7C046B4280020B028002017
:10C6A000E9C20100202900209DC40100CDC2010083
:10C6B0000429002010B50C4C18220021200004F0A1
:10C6C00006FC2000122103F08BFF084C06212000FD
:10C6D00003F054FE064A0749200004F06BFB0648AD
:10C6E00003F034FF10BDC04608290020B428002004
:10C6F00000280020F90202002029002070DF704786
:10C7000071DF704760DF7047704710B503F050F974
:10C7100010BD10B503F0B8FB002010BDF0B504004B
:10C7200089B002F0C5FD200000F02AF920881038F9
:10C730000B2874D805F040F806497373736A737355
:10C74000737A7392A688277D00F06AFF310001F0AA
:10C7500037F800F065FF05002A00637B583200932C
:10C760001378A0799C46022361460B43137002ABF9
:10C77000D8701E809F70002302AA03931381D37286
:10C78000137353739373D373137423000099163385
:10C79000917203A8E11D0622079304F08FFB21008C
:10C7A0000B2002AB06220E31C01804F087FB943533
:10C7B0006B68AB60A868002831D0C36802A99847AD
:10C7C000AB68002BF4D01B69F3E7A78800F028FFC3
:10C7D000354900F0F5FFA67900F022FF02000221A2
:10C7E000A0300500583213788B43137002AB1F80C2
:10C7F0009E706B68AB60A868002810D0C36802A95F
:10C800009847AB68002BF4D01B69F3E701F01CFEDE
:10C810004369A288A11D002B01D01000984701F0A8
:10C820008DFC210001F0EAFC09B0F0BD00F0F8FE3B
:10C83000436E0500002BF2D01C4A002AEFD0A679E7
:10C84000AB66A86E0028EAD0C36831009847AB6E8B
:10C85000002B01D16B6EF3E71B69F1E7012600F0B5
:10C86000DFFE0D276946A37BE7575A071E40920F4C
:10C87000DB0805000A700B710622E11D02A804F016
:10C880001DFB6A46127802AB1A726A4612799F71D2
:10C89000DE715A72230028000F3305938C358030E7
:10C8A0002B6802A99847BAE7FFFF000009C70100FB
:10C8B0001FB58022A323D205DB00D3580820DB0755
:10C8C00000D405301E4B48221E4903F033FB0028DC
:10C8D0000BD080B2002808D1BFF34F8F1A4B1B4AF0
:10C8E000DA60BFF34F8FC046FDE702AC082200219B
:10C8F000200004F0ECFA012320002370FFF702FF70
:10C90000002803D00724200004B010BD6846FFF7BC
:10C91000F7FE0028F6D16946FFF7F0FE0028F1D1B6
:10C920000B4803F037FB84B2002CECD1094803F02C
:10C930003BFB84B2002CE6D100F0D2F8E3E7C0461E
:10C9400013C701003029002000ED00E00400FA05C3
:10C950001DC701000BC701007047000080B200280E
:10C9600008D1BFF34F8F044B044ADA60BFF34F8FF7
:10C97000C046FDE77047C04600ED00E00400FA0540
:10C9800030B585B0040001F01FF9050003002088D0
:10C990002835303808280ED804F00EFF050D1A0D82
:10C9A0002F3B0D567300E288002A0CD1210028008D
:10C9B0000C3101F0C9FE280001F0B8FD280001F09B
:10C9C0001BFE05B030BD9B6A28009B689847F2E7C4
:10C9D000E288002A05D1210028000C3101F036FF41
:10C9E000E9E71A0088321178022901D10139117062
:10C9F00084331A7801321A70DDE79B6A28005B687D
:10CA000098470028D7D0210028000C3101F088FF7A
:10CA1000D1E76A46A3881380A3895380E389938072
:10CA2000238A12340294D38001F0CEF80400A36864
:10CA3000E360E0680028BED0C36869469847E368B1
:10CA4000002BF4D01B69F3E76A46A3881380A389FF
:10CA50005380A37B1371238AD380638A1434039495
:10CA6000138101F0B1F804006369A361A069002893
:10CA7000A1D0C36869469847A369002BF4D01B690D
:10CA8000F3E76A46A3881380A3895380A37B1371BD
:10CA9000238A1234D380029401F096F8036A0400CA
:10CAA000002B00D187E7094A002A00D183E763629F
:10CAB000606A002800D17EE7C36869469847636AC8
:10CAC000002B01D1236AF2E71B69F0E709C70100D7
:10CAD00077DF704778DF70477ADF70477CDF704719
:10CAE0007FB5002302ACA380134B144E0293C823DE
:10CAF0005B00E380803BFF3B01AD30002B7004F016
:10CB000025FB310082B22800FFF7E8FF80B2002841
:10CB10000FD180208000FFF7DDFF80B2002808D110
:10CB20002000FFF7D9FF80B2002802D1FFF7D0FF25
:10CB300080B204B070BDC04628009001EE1D020016
:10CB400068DF70470B7870B50C00142B25D003D824
:10CB5000132B0FD0002070BD152B29D0222BF9D11B
:10CB600001F072FC63681A880369002BF2D0100090
:10CB70009847EFE74E6801F067FC63680500188886
:10CB8000B378012419005A08214022406C68DB0662
:10CB90005B0F002CDED0A047DCE701F055FC63689A
:10CBA0001A8899788368002BD4D010009847D1E771
:10CBB0004B689A7813091207120F012A03D0022A30
:10CBC00011D0002506E0013BDBB20025022B01D885
:10CBD000084AD55C01F038FC63681A88C368002BEA
:10CBE000B8D02900E1E70425012BF3D00135022B51
:10CBF000F0D0E6E7F41D0200F0B51C002F4B87B023
:10CC000001921A78002307000E009A4204D102F024
:10CC100057FF002803D00B23180007B0F0BD002CED
:10CC20000ED003A922200394FFF78AFF002807D023
:10CC300006230828F0D01138434243410433EBE780
:10CC4000002302AA1000137002F0FAF9011EE2D1CB
:10CC5000082204A804F03BF9194B01250393102383
:10CC60000221042203ACA371E371237A2F402B43EA
:10CC70000B431343237263792E40AB433B43720053
:10CC80001E000727019B8E4316433B401C228B400E
:10CC9000964321711E4321000A48667102F048FA4A
:10CCA000002807D03B000428B6D0013B0828B3D0A9
:10CCB0000533B1E7014B1D700300ADE77929002072
:10CCC00045CB01007829002010B5074802F0A2FAF0
:10CCD0000023984206D00733042803D0013B0828DC
:10CCE00000D00533180010BD78290020002373B54B
:10CCF00001930F4B01AD1B780E0029002B7002F041
:10CD0000A5FC041E05D00423052800D00733180015
:10CD100076BD3100280002F045FA23000028F6D045
:10CD200007230428F3D0013B0828F0D00533EEE7B1
:10CD300078290020A2DF7047A3DF704763DF7047C8
:10CD400010B586B06B46DC1D002302AA2370C15CBF
:10CD500099540133102BFAD121001000FFF7EEFF98
:10CD60000023984200D12378180006B010BD0000BF
:10CD70000122F0B5438A87B003930378040001923F
:10CD8000002B3AD0234E83180093234A33680027A0
:10CD90009C461100BC4511D00023981E012804D9DF
:10CDA0000098D55CC05C854231D10133102BF4D1A1
:10CDB0001120784309180B7C01931EE00098FFF7BF
:10CDC000BFFF237802900190002B01D11234009410
:10CDD000042F12D01125380068430F4C1022201860
:10CDE000009904F06BF8002233685D436419A27067
:10CDF000E270029A013322743360019A05AB9A7093
:10CE00005888039B00040343180007B0F0BD0137A6
:10CE10001132BFE77C29002080290020F0B59BB0AB
:10CE20001F0020AB029102CB0BAC1B880391049333
:10CE300022AB1B880190059323AB1B78200006933F
:10CE400025AB1E8826AB1B78079327AB1B7808936E
:10CE500008ABD91D0A70012204F030F83023227883
:10CE60001A420ED00CAC03220021200004F02FF84F
:10CE70000622A37893431A0002231343A3703A4B6C
:10CE8000238013AC1C220021200004F020F80BABFF
:10CE90001D7830232B40591E8B410CAA5B421A404F
:10CEA00025706261002E05D0249B002B02D06360A8
:10CEB000268166810DAC03220021200004F007F8D2
:10CEC0000121079B089A0B400A401201DB00134323
:10CED000069A0A401100022213430B43A370322327
:10CEE0001D4209D0781E042806D804F065FC031002
:10CEF00012141600112323700C231D4211D0781E2A
:10CF000004280ED804F058FC0B27292B2D002123D0
:10CF1000F1E73123EFE71223EDE72223EBE71123BB
:10CF20006370222008AB06220021C01803F0CFFF57
:10CF3000029B0EAD0E93049B2A002B81059B13A927
:10CF4000AB81039B01982B61289B6C60FFF7F2FE7D
:10CF500080B21BB0F0BD2123E2E73123E0E71223CA
:10CF6000DEE72223DCE7C04611110000F0B589B0EE
:10CF700000930EAB1B8805000F00160001930322DF
:10CF80000FAB002102A81C7803F0A1FF01230E20A3
:10CF90001C40DB181C4302AB9C700D4B02AA138093
:10CFA00002AB06220021C01803F091FF03AC02ABD4
:10CFB0006360009B109A2381019B21002800039746
:10CFC000A3812661FFF7B8FE80B209B0F0BDC0466C
:10CFD000111100000160012170B51C1C04AB1D88FB
:10CFE00005AB1B88C283027E4583E5078383ED0F73
:10CFF0008A4363080B402A4302258B40AA431A4305
:10D000000423A5080D40AD009A43E6080E402A43CC
:10D01000DB18F6009A43250932430D4008332D01F1
:10D020009A432A43202563090B40AA435B0113431B
:10D030004022A4092140890193430B43037670BD2C
:10D04000016000218C46F0B589B00FAD1E002B8821
:10D0500010AD0EAC00932B88C283247803AA0193F1
:10D0600011706346571801317B701029F9D1031DE7
:10D070005682E0CAE0C360CA60C30122009BE50794
:10D080004383019BED0F8383037E66089343164021
:10D090002B4302259640AB4333430426A508154095
:10D0A000AD00B3432B430825E6081640F600AB431A
:10D0B0002509154033432D018B432B43202561095E
:10D0C00011404901AB430B434021A4092240920186
:10D0D0008B431343037609B0F0BD70DF704771DFF7
:10D0E000704772DF704773DF704774DF704775DF1A
:10D0F000704776DF704777DF704778DF704779DFFA
:10D1000070477ADF70477BDF70477CDF70477DDFD9
:10D11000704786DF704787DF704788DF70470220DF
:10D1200070470220704700207047002070470000C1
:10D1300000487047FFFF0000022070470220704740
:10D14000022070470220704702207047022070477B
:10D15000022070470220704702207047022070476B
:10D16000022070470220704702207047002313609E
:10D1700070470220704702207047142070476420D7
:10D180007047A020800170471FB50C0010220021BD
:10D19000684603F09CFE0122A379684613406A4664
:10D1A00013702388138163885381A3889381FFF7C9
:10D1B000B0FF0323002800D10300180004B010BD05
:10D1C00010B5FFF7A8FF0023984200D005331800E0
:10D1D00010BD0000F0B50D78040087B00220012DCD
:10D1E00009D04E88032D08D13300124AA03B9BB2D0
:10D1F000934206D9032007B0F0BD33000E4A203B0E
:10D20000F5E78F880D4B9F42F4D81822002168461D
:10D2100003F05DFE6B4668461D701E825F82FFF75D
:10D2200062FF0028E6D1012358342278134323708B
:10D23000E1E7C046603F0000E03F0000FF3F000024
:10D2400010B50400FFF751FF0323002805D1012189
:10D250000300583422788A432270180010BD03005E
:10D2600010B5FC24583308001978214019703B216F
:10D270008A4200D02839FFF73CFF0323002800D161
:10D280000300180010BD030010B5E0330A00198830
:10D2900003681B6A984710BD10B50800FFF733FFFD
:10D2A0000323002800D10300180010BD10B50800AA
:10D2B000FFF727FF0323002800D10300180010BD4B
:10D2C000080010B51100FFF712FF0023984200D0AC
:10D2D0000333180010BD080010B51100FFF717FF49
:10D2E0000023984200D00333180010BD10B5080089
:10D2F000FFF703FF0023984200D00333180010BD4E
:10D3000010B50800FFF7FBFE0023984200D003335E
:10D31000180010BD10B50800FFF7EDFE002398427D
:10D3200003D00533112800D0023B180010BD0000C7
:10D33000024B0B60092313607047C046F01E0200C9
:10D3400010B50368002B01D00800984710BD10B538
:10D350000368002B01D00800984710BD02000300AD
:10D3600010B5AC3211786C309B6F984710BD4A688D
:10D3700010B55310C0180B68D20701D50268D358F6
:10D38000984710BD13B50C001100012C0DD86B4649
:10D390000622581C03F092FD00206B4669461C7063
:10D3A000FFF79BFE002805D003E00120A31E834267
:10D3B000F3D9032016BD73B568460E001500FFF7BC
:10D3C0008EFE032400280DD1002E02D06B461B7860
:10D3D00033700024A54205D06B460622591C280054
:10D3E00003F06CFD200076BD70B588B01E006B4662
:10D3F00004001A70581C06220C9D03F05FFD02AA5F
:10D40000002E2DD03388138073885380B388938087
:10D41000F388D380002004A90B78486002300126ED
:10D420008343002D22D0A879B343304003430B70CF
:10D430002B880B816B884B81AB8868468B81FFF70B
:10D440006CFE03000020834226D00630082B23D038
:10D4500019D80130042B1FD083421CD104201BE0BB
:10D460000E4B029396239B040393D3E720003230A4
:10D470000078B343304003430B70A38D0B81E38DE1
:10D480004B81238ED9E70520112B05D0044A934206
:10D49000E4D0102BE2D00B2008B070BD3200640045
:10D4A00002320000112337B5080001AC23700D00D3
:10D4B00003F04CFE290082B22000FFF726FE002375
:10D4C000984200D0033318003EBD0000012110B582
:10D4D000044A080001F05AFB0023984200D00B33A5
:10D4E000180010BD91D7010010B50C00C97F0120B4
:10D4F0001F2902D8002901D1032010BDD37F2000AD
:10D50000FFF7EFFD0028F7D1208CFFF7F6FD00288C
:10D51000F3D0F1E7064B70B50400036040680028C3
:10D5200004D0056903F03CFC2800F8E7200070BD3A
:10D53000001E020010B50400FFF7ECFF200003F00E
:10D540002FFC200010BD0000064B70B504000360E6
:10D550004068002804D0056903F022FC2800F8E7A1
:10D56000200070BD101E020010B50400FFF7ECFF94
:10D57000200003F015FC200010BD0000064B70B524
:10D58000040003604068002804D0056903F008FC2B
:10D590002800F8E7200070BD201E020010B504002E
:10D5A000FFF7ECFF200003F0FBFB200010BD0000A4
:10D5B00010B50400044B036002F034FF200002F0B9
:10D5C00093FF200010BDC0467821020010B5040072
:10D5D0000B4B083303600B4BB0300360FFF7E8FFE1
:10D5E0002000094BA0302360FFF7C8FF20009430D3
:10D5F000FFF7AAFF20006030FFF78CFF200010BD6E
:10D600008C1E020090210200301E020010B50400A2
:10D61000FFF7CEFF200003F0C3FB200010BD000089
:10D620000123F7B5494F3E78BFF35B8F1E40484C4E
:10D6300000D089E0380003F0A3FB002800D183E08C
:10D64000444B1F252360A02329222671E3802681D5
:10D65000531B013DE654002DFAD1230029331D70E0
:10D6600080228023D2019B006385110000952B004E
:10D670003948FEF7F9FD2E002B0001353433E6540E
:10D680001F2DF9D1354B80221E7023009200543398
:10D690001A802200FC215832137820000B401370AE
:10D6A00023005C331E702E4B0C222366002166661D
:10D6B0006C3003F00CFC20002A4B0C22A3670021E5
:10D6C000E667803003F003FC230090331E602300E4
:10D6D000254A8C331A602300244A94331A602300AD
:10D6E00098331E602300224AA0331A602300A4331B
:10D6F0002A001E6000211F4803F0E9FB23002933A4
:10D700002A0000211E701C4803F0E1FB134B1B4D47
:10D710001E701B4B28000833236002F0CFFE23004D
:10D72000C8331E602300DC331E60164B01222B60C1
:10D7300023005242E03338001A8003F02EFB124AD5
:10D740001249200003F036FB2000FEBDC429002052
:10D75000C8290020301E0200F42900201B2A0020C6
:10D76000001E02004FD3010041D30100101E020031
:10D77000201E0200D2290020FC290020782A002047
:10D780008C1E02009021020000280020CDD501004F
:10D7900010B50400FFF744FF030002000649AC3354
:10D7A000CC32D8611C70116000215160034AB03046
:10D7B0001A6302F03FFE10BD5DD301006FD301007C
:10D7C000E03001807047E0300088704702207047E9
:10D7D00090DF704795DF704797DF704760300078C3
:10D7E000431E9841C0B2704788300078431E98416C
:10D7F000C0B27047080010B511001A00FFF7EAFF29
:10D800000023984203D01138431E9841431D18004D
:10D8100010BD000030B5002485B001AD6B80089BC1
:10D820002970EB80099B290010006C70AC80039379
:10D83000FFF7D2FFA04207D00534112804D0044BD3
:10D84000C018444244410634200005B030BDC046F3
:10D85000FCCFFFFFF7B50193036800915B680400FC
:10D860001700984705000620002D38D123003A0004
:10D870001C3343CA43C3FB68019AA3622300E562D9
:10D88000443343CA43C3019B1422DB6808992365D0
:10D890006565A01D03F012FB2000142209993030A9
:10D8A00003F00CFB009B0121A38023005C331D804F
:10D8B00019712A000098FFF78BFF06002800002E40
:10D8C0000DD0236820009B6898470520112E06D0B4
:10D8D000034B9E4202D00130072E00D10420FEBD32
:10D8E00002300000F0B587B001AB1A000C00E0CCAC
:10D8F000E0C202009D32FF32C96870CB70C20023C3
:10D900009D30FF30C160036107B0F0BD10B5036802
:10D91000002B01D00800984710BD10B50368002BFC
:10D9200001D00800984710BD10B50368002B01D046
:10D930000800984710BD0000064B70B50400036056
:10D940004068002804D0056903F02AFA2800F8E7A7
:10D95000200070BD041F020010B50400FFF7ECFFAB
:10D96000200003F01DFA200010BD0000064B70B52A
:10D97000040003604068002804D0056903F010FA31
:10D980002800F8E7200070BD141F020010B5040045
:10D99000FFF7ECFF200003F003FA200010BD0000A9
:10D9A000064B70B5040003604068002804D0056988
:10D9B00003F0F6F92800F8E7200070BD241F0200EC
:10D9C00010B50400FFF7ECFF200003F0E9F9200098
:10D9D00010BD03000A0070B57533FF3370CA70C301
:10D9E0007530CB68FF30C3600023036170BDF0B5B4
:10D9F00015008FB004AA1C002E00130003910290A2
:10DA000083CE83C3EB682700D360002313619C4659
:10DA100009AB1E0023CF23C66146E4681961DC60B0
:10DA2000159C02980194149C039900942830FFF7E8
:10DA300011FF0FB0F0BD10B5002204000270431CAE
:10DA400011341A700133A342FBD1418210BD000092
:10DA5000F0B597B00593036807AC1B680491039376
:10DA6000110023000600A1C9A1C30025D368290025
:10DA70000C220CA80A9311AF0B9503F028FA094B5E
:10DA8000290038000F931095FFF7D5FF059B220062
:10DA9000009301970CAB04993000039CA04717B08A
:10DAA000F0BDC0460DD90100F8B5002504000E00F8
:10DAB000857105830C2229001C3003F008FA2B4BDA
:10DAC0002000A36223003033E5621D70231DDD8733
:10DAD00044300C22290003F0FAF9254BA665236592
:10DAE000244B260023602300270060336565E5652D
:10DAF00062361D70C23730000021FFF79CFFB582EF
:10DB0000F5821836BE42F6D1260027004536C437C6
:10DB1000FF3600253800290020C0FFF78CFF3D7636
:10DB20007D83BD832037BE42F3D1A2235B00E55045
:10DB30002300FC33DD641D655D659D65AE22746167
:10DB4000260052007536A550FF365D669D66DD667F
:10DB50001D67A318513A5C6129003000FF3A03F0B9
:10DB6000B6F9054B3561F3602000F8BD1BD9010003
:10DB70000DD90100341F020029D9010010B504009D
:10DB800003685B6898472300002260331A70904254
:10DB90000CD020009C339B6F7530FF30934205D032
:10DBA000034B934202D0A188C368984710BDC0467A
:10DBB00009C7010010B5FFF7E1FF10BD10B528300F
:10DBC000FFF7DCFF10BD000070B50E4E3568002D6C
:10DBD00015D1D820400003F0C1F804000A4B85603D
:10DBE00043600A4B45610361094B0562C361094B00
:10DBF0002100083303602830FFF756FF3460306897
:10DC000070BDC046AC2A0020041F0200141F020091
:10DC1000241F0200441F0200A0DF7047A4DF7047EA
:10DC2000A5DF7047A6DF7047A8DF7047A9DF704700
:10DC30000220704702207047022070470220704780
:10DC40000220704702207047022070470020704772
:10DC500013B504680093A46813000A000149A047A3
:10DC600016BDC046FFFF000037B5080000251100B3
:10DC70006A4655806D46069C019322882A806A4632
:10DC8000FFF7CEFF0323002802D12B882380030057
:10DC900018003EBD37B506AC2578046801950093A1
:10DCA000246913000A000149A0473EBDFFFF0000A0
:10DCB000F8B503680E0017009D690400FFF7B0FC7B
:10DCC000FFF781FD3B00010032002000A847F8BDAE
:10DCD000064B70B5040003604068002804D0056955
:10DCE00003F05EF82800F8E7200070BD741F020002
:10DCF00010B50400FFF7ECFF200003F051F82000FE
:10DD000010BD000010B50400074B03602030FFF782
:10DD100013FE20001430FFF729FE20000830FFF723
:10DD2000D7FF200010BDC046841F0200F0B5D48B81
:10DD300002001E000023457985B0B8329D4224D9E7
:10DD400008321700083F3F88A74211D11733DB0084
:10DD5000C3180E249A8802236C442380036803AD01
:10DD600000949F682B00B847002803D005B0F0BD91
:10DD70000133E3E723880620022BF7D12B8800200C
:10DD80009B07F3D001233370F0E70420EEE7000097
:10DD9000F0B587B00D00002469466F4616004C8030
:10DDA0000DAA0CA90988127839800193A2421BD1CF
:10DDB00001004479B83194420DD908310F00083F71
:10DDC0003F88B7421BD130211A32920012580132DB
:10DDD000D27F0A4215D16A4631002800FFF71EFFA4
:10DDE000002808D1062407E06A4631002800FFF722
:10DDF00015FF002800D00324200007B0F0BD013239
:10DE0000D9E710210A4051424A4102AC0132A270C6
:10DE10000022E3600CABA360144B2680A2809D42DD
:10DE200004D1FFF7FDFBFFF7CEFC05002100280021
:10DE3000FFF7F8FE002482B2A242DDD0112A13D0EF
:10DE40000BD8082ACED06A4631002800FFF7E6FE3C
:10DE500005240028D0D0023CCEE7054B9A4203D0DF
:10DE6000044B9A42EFD1BDE70524C5E7FFFF000050
:10DE7000033000000134000010B50278002A0BD1F5
:10DE80000C781300002C05D1438A488A1B1A58428B
:10DE90004341DBB2180010BD0023012AFAD10A78F1
:10DEA000012AF7D1013101300F3202F0F8FF43426D
:10DEB0004341EEE7F0B5050097B008002E240B9122
:10DEC000FEF756FF04ABE4181090220010A90120C1
:10DED000FFF7A2FE002802D0032017B0F0BD238870
:10DEE0000B9A0A9093830B9B0A9A1B7D934200D84E
:10DEF000B9E06B79132B01D90720EEE70B9B9B69E7
:10DF00000C930A9B0C9A9B009C586369002B07D1C9
:10DF1000638B002B04D1631CDB7F022B00D19DE0BF
:10DF20002000FEF725FF002610900D960C9623008A
:10DF300028331B78B34219D9626AB3009F58002373
:10DF4000180011A90B70CA1801335070102BFAD1A8
:10DF5000474B38004B82FFF78FFF002803D07B69C7
:10DF60000C937B8B0D930136F6B2E0E76979A31C25
:10DF70001731C9006918621CDB7FD27F089121002C
:10DF80002A3109780020079121002931097806916A
:10DF90000D9905910C990491217F0391218B029198
:10DFA000618B01916169009110A9FEF737FF00288C
:10DFB00000D091E76B7907001A001A3292001733EC
:10DFC0005451DB005B5BE3836B7901336B7123009E
:10DFD00028331B78BB4241D9BC235B00EB5C072B89
:10DFE0008AD8626ABB009E580023180011A90B70E2
:10DFF000CA1801335070102BFAD11D4B30004B82E0
:10E00000FFF73AFF0C90002825D13000FEF7B0FE54
:10E01000BC2149006A5C738BBD325200AA1802927F
:10E02000327F10900192328B10A9009272690C9885
:10E03000FEF79CFF002800D04EE7BC2149006A5C37
:10E04000531CDBB26B545632BC3392005B0056510A
:10E05000EB185B88F3830137FFB2B8E70A98013009
:10E06000C3B20A933FE72B79002001332B7134E7C9
:10E070000129000070B50C220D000021040002F0FF
:10E0800026FF00232361024B25602000E36070BD62
:10E0900029D9010070B500250400234B8580036059
:10E0A000224BC5608360224B85614361214B4562F1
:10E0B000036229002C30FFF7DDFF200029004030EB
:10E0C000FFF7D8FF200029005430FFF7D3FF1A4B89
:10E0D0002200083323602300B832683320C3934200
:10E0E000FCD126001D005936FF36280008220021E9
:10E0F000083502F0ECFEAE42F7D121000022793162
:10E10000FF3104C6B142FCD1BC235B00E2542300C2
:10E11000220000217B338B32FF33FF321980023320
:10E120009A42FBD1200070BD841F0200741F0200C0
:10E13000141F0200041F0200A41F020070B50C4D42
:10E140002B78BFF35B8F0B4CDB070FD4280002F05A
:10E1500017FE00280AD02000FFF79CFF280002F0DD
:10E160001CFE054A0549200002F024FE200070BD77
:10E17000B02A0020B42A00200028002005DD01007C
:10E1800070B504000D006368A360A068002807D084
:10E19000C36829009847A368002BF4D01B69F3E7F4
:10E1A00070BD10B5C368984710BD00000B0010B5D6
:10E1B0001100042B0BD0052B13D0032B06D1C36AFF
:10E1C000002B03D00C4B2C30002B07D110BD036C5F
:10E1D000002BFBD0084B4030002BF7D0FFF7E1FFBE
:10E1E000F4E70300426D5433002AEFD0024A002ABC
:10E1F000ECD01800F2E7C04609C70100F0B50B8863
:10E200008FB005000C00512B00D17AE005D8012B0E
:10E2100061D0502B2ED00FB0F0BD522B6AD0532BB3
:10E22000F9D1CE8805212B0000206A79B8330090FF
:10E2300000988242EFD90833180008380088B042AD
:10E240006BD1062900D1A8E0072969D03200022944
:10E250003DD1A3880AA90B804E80237A0B71A38B32
:10E26000CB80E38B20340B81CC6028001430FFF787
:10E2700087FFD0E702000023CE884179BC32994263
:10E280000DD90832100008380088B04209D11A337D
:10E290009B005A59531CD87F3023184203D10221C6
:10E2A000C1E70133EBE7A31CD97F0134E37F090207
:10E2B0000B43810602D503219C0707D40421C00625
:10E2C00004D503390B40594259410331D28B280000
:10E2D000FFF76CFF9FE70C7AEB682B612869002839
:10E2E00000D198E7C368210098472B69002BF3D031
:10E2F0001B69F2E7002388881A001900FFF796FCD3
:10E3000089E78B79012B05D0022B00D083E70E899A
:10E31000072188E70E89062185E70098013086E706
:10E3200000230593A38802AA13805680E38B06AFCF
:10E330009380238C0021D3802300102222333800C5
:10E340000193049302F0C3FD02233B70009B1A3338
:10E350009B005A5913002A3319780023994206D09A
:10E360001000D36C403002A9984702AB9B89A0886B
:10E370003900BB80FFF758FCBB88002B00D04AE770
:10E38000A3880AA90B804E80A37A0B71E38BCB8004
:10E39000238C0B81019BCB6067E7162002AB0A221E
:10E3A0000021C01802F093FDA38806AF7E803B8059
:10E3B000A38B0AAE102200213000BB8002F087FD43
:10E3C00001233370009B1A339B005B591A002932DA
:10E3D00011780022914205D0180039002C309B6B37
:10E3E0009847BA89B280BB89002B0BD1BA68002A42
:10E3F00008D0B17901330B43B371BB883381FB88FB
:10E40000F2607381A0883100FFF70EFC03E74160E2
:10E41000704781607047C16070470161704741611A
:10E42000704710B5FEF750FC10BD10B50800110084
:10E43000FEF75CFC10BD10B5080011001A00029B2D
:10E44000FEF7DAFB10BD000070B5084D2C68002CFB
:10E450000AD1182002F082FC054B44608460C4603D
:10E460000461446103602860286870BD402C00206E
:10E47000D41F020090DF704792DF704794DF70472F
:10E48000030060331A78022A01D1013A1A705C3015
:10E490000378013303707047016810B5020000294A
:10E4A0000AD013004C1E89004068521810C39342D2
:10E4B00004D0596802C3FAE70120404210BD016848
:10E4C00010B5020000290AD013004C1E89004068D4
:10E4D000521810C3934204D0596802C3FAE70120CE
:10E4E000404210BD73B506000800B1803100002421
:10E4F00002255E318D700C8001A90A804B80FFF7E8
:10E50000BBFF05002000A5420CD03000FFF7B8FF8C
:10E510000520112D06D0044B9D4202D00130102D54
:10E5200000D1042076BDC04602300000F0B50400E2
:10E530008BB0230060331B78022B58D125002200BA
:10E540005E355F322B7812789A4232D9270000214B
:10E5500030376846FFF76FFA69463800FFF78CFCE2
:10E56000061E08D02000636C4430002B17D12B7896
:10E5700001332B70DDE7297838004901C831611873
:10E58000FFF77AFC0028F2D0310005A8FFF753FA14
:10E59000A01D05A9FFF770FC0028E8D1E2E7154BA4
:10E5A000002BE4D02978236D4901C43161189847C4
:10E5B000DDE7013B5B01E318E0331A8823005C339D
:10E5C000197818234B430021E318783301321B8854
:10E5D00092B229809A4207D205A90A804B80A0886E
:10E5E000FFF74AFF002802D02000FFF749FF0BB0D9
:10E5F000F0BDC04609C70100F0B50400182689B077
:10E600002300603301931B78012B68D12500220081
:10E610005C355D322B78127893424ED20021A71DD3
:10E6200003A8FFF708FA03A93800FFF725FC002824
:10E6300019D0E369002B23D1019B1B78012B1BD13F
:10E64000636C002B18D0274B002B15D02A78A1889B
:10E650007243A2181300763278331B881288200088
:10E66000FFF740FFCCE72978380071436231611829
:10E67000FFF702FC0028DCD12B7801332B70BFE7B9
:10E68000184B002BD8D0002103A8FFF7D4F92000A5
:10E6900003A93030FFF7F0FB0028CDD02000297807
:10E6A0001C30714362316118A36A9847C4E7A0889F
:10E6B000FFF7E0FE002812D00EE0002A0FD0002B5A
:10E6C0000DD05A1E182353430022E31878331988BB
:10E6D000054B2A809942EAD12000FFF74FFA09B092
:10E6E000F0BDC04609C70100FFFF0000F7B50400F8
:10E6F00003251826636922686033002A1CD01D7028
:10E70000676804220F49684602F0D8FB3B00734358
:10E71000616901AACB181800763000887833108020
:10E720001B88538088886946FFF7A8FE002808D018
:10E730002000FFF7B1FEDDE71A78032A01D1023A83
:10E740001A70F7BDF41F020003000022F0B55C331D
:10E750001A700A788BB004000133042A2AD8A22048
:10E760001A7001220026270040005242231826502A
:10E770008D1C5A609A60DA601A616237019023003A
:10E780005D331B78B34228D9AB78002B14D1019BA1
:10E790000199E3585A1C62509A0023004533FF3315
:10E7A0009B18AA885E60EB88BA82FB820136083526
:10E7B0001837E4E70422D2E7298805A8FFF73BF9D8
:10E7C000AB8814220293EB8805A93800039302F06A
:10E7D00075FB029BBB82039BE7E72300FC339B6C2A
:10E7E000002B04D020004530FF30FFF77FFF0BB037
:10E7F000F0BD000073B5050004266B692A6860331C
:10E80000002A1AD0042210491E7089186C686846C4
:10E8100002F054FB696964010C19DE34238801AAF3
:10E8200013800133538088886946FFF727FE00284C
:10E8300008D02800FFF743FEDFE71A78042A01D149
:10E84000023A1A7073BDC046F41F02000300002292
:10E85000F0B55E331A700A788BB004000F000133F4
:10E86000042A3ED8AE211A700122002549005242E6
:10E8700063186550BE1C5A609A60DA601A6109918B
:10E8800023005F331B78AB423DD920006B01C430BD
:10E89000C3180593A388A16D0793F3883089089363
:10E8A000B378002B1FD1099BE3585A1C944606935A
:10E8B0006346099AA350069B089A9B009C46230036
:10E8C0005D33FF3363445D600A236B430190009224
:10E8D000FB189B79079A0598FEF77CFB01350A36F1
:10E8E000CEE70422BEE7EC46338802900A20089A5D
:10E8F000684301926246381880791070079A05982B
:10E90000FEF79EFBEAE72300FC331B6E002B04D0CE
:10E9100020005D30FF30FFF76DFF0BB0F0BD000051
:10E920007FB5030060331B780500032B2DD1060053
:10E930002E4B0A684536FF369A4222D1102289684A
:10E94000684602F0BBFA3000FFF7A6FD18244443E6
:10E950002C1923000122200062331A7069460F32FD
:10E96000633002F0ABFA2300210070331A786F3461
:10E9700023781202743113430B803000FFF7B6FE88
:10E980007FBD3000FFF788FDFAE7042BF8D10600C1
:10E99000174B0A685D36FF369A4222D189681022E9
:10E9A0000331684602F08AFA3000FFF788FD44011F
:10E9B0002C19230001222000C8331A7069460F3237
:10E9C000C93002F07BFA23002100D6331A78D534FF
:10E9D00023781202DA3113430B803000FFF70AFF6D
:10E9E000CEE73000FFF76BFDCAE7C046010010001C
:10E9F0000100130066DF704748DF704700797047F9
:10EA0000704710B5FFF7F8FF10BD10B5040002F015
:10EA1000C7F9200010BD10B5FFF716FD10BD10B5E9
:10EA2000FFF712FD10BD10B5FFF7CEF810BD10B501
:10EA3000FFF784FB10BD10B5FFF780FB10BD10B5CC
:10EA4000FEF7EEFD10BD10B5FEF7EAFD10BD0000AB
:10EA50007FB503791548002B22D0154E154C33781D
:10EA60002000002B1CD102AD2800FFF7C3FF0028B7
:10EA700010D16B88592B0DD12B78AA88D91F012969
:10EA800010D800920C4A2021200002F02DFB012317
:10EA9000337004E020220949200002F05EFB2000D0
:10EAA00004B070BD0092064AEDE7C046FC1F0200AC
:10EAB000702C0020502C00201E2002001620020086
:10EAC0003B20020010B5027904000923002A06D079
:10EAD00001F054FA0523002801D103002071180029
:10EAE00010BDF7B5047907000E001500002C11D0F9
:10EAF00008220021684602F0EAF90A246B461C71DC
:10EB00003000FDF755FBEB680090694628009847F8
:10EB10002000FEBDFDF7CCFE012308223B71210041
:10EB2000684602F0D4F9EBE700487047442C002017
:10EB3000064B0748083310B503600023054A064911
:10EB40000371836002F036F910BDC04660200200F8
:10EB5000442C00200028002001EA01002EDF70472D
:10EB600032DF704733DF70474CDF70470120054BC1
:10EB700010B51A7850401870034B1B68002B00D05A
:10EB8000984710BD782C0020742C00200C4B70B5D9
:10EB9000050015200C001A60FFF7E2FF00280ED1D7
:10EBA00029001530FFF7DEFF002808D11530FFF7E8
:10EBB000D5FF002803D121000330FFF7D5FF70BD3A
:10EBC000742C002010B5074C200001F077FC064B98
:10EBD000064A236000230649A361E362200002F095
:10EBE000E9F810BD7C2C00207821020000280020CC
:10EBF000B1D501007FDF704782DF7047A7DF704724
:10EC0000A9DF7047AADF70470020704700207047D7
:10EC100000207047F7B504000E006A46817820484E
:10EC200001F00AF800283AD10C2362781D4F5A43AC
:10EC30001D4B9B189B7A5B0605D4022E03D01B4FFD
:10EC4000012E00D01A4F1C25A3781A496B432A00C5
:10EC5000C91868460023B84700281ED1022E1ED0CE
:10EC60000C226178104B4A439B189A7A40306943D2
:10EC700082439A72104B2A00591868462B00B847F5
:10EC80000C23227821005A430C4B68469B189B7A30
:10EC90000B4A9B009B58984701E0022EF0D1F7BD2C
:10ECA000382D0020FDFC0100D42C002085FC010043
:10ECB00009EC0100002D0020B82C0020AC2C002015
:10ECC000C0200200F7B518220190437828485A4323
:10ECD00081184C68274F002C30D00C2159437918EB
:10ECE000897A4DB2002D28DA490626D41500A6B23D
:10ECF0000835145845190C225343FB181889320063
:10ED000023002900FFF77CFF0B281AD10C22019B5E
:10ED100029005B785343FB18188932000123FFF761
:10ED20006FFF0C21019B144A5B784B43FF18388915
:10ED3000FFF764FF00280AD1FEBD0024260025004D
:10ED4000D9E7002800D00D48012CF5D1E9E70222CF
:10ED50000B4BC318934308D0082806D01138434200
:10ED60005841064B40421840E6E70448E4E7C046F5
:10ED7000E02C0020D42C0020FFFF00004180000088
:10ED8000FECFFFFF10B5FFF79DFF10BDF0B589B0B6
:10ED900002AB9D1D0E230C27019000912B804B7818
:10EDA000224A7B43D31818892A00032304A9FFF7BA
:10EDB00029FF00281AD11826009B1D4C58782A8854
:10EDC00070430830201804A902F069F8009B5B78B2
:10EDD00000280ED15F43154AD7190222B97A114093
:10EDE00004D173433200E01802F071F8002009B03A
:10EDF000F0BD5E43A61972680E4F002A00D10E4F77
:10EE0000182603227343E2502A88E11808334A6027
:10EE1000E01804A902F052F8009B320059780198DA
:10EE2000714338236118B847E0E7C046D42C00206E
:10EE3000E02C0020FDFC010085FC010010B5FFF76F
:10EE4000A5FF10BDF8B5182507004878094C6843A0
:10EE50000E00201838232A00390000F08BFF00280C
:10EE600006D173785D4364196368013300D1606033
:10EE7000F8BDC046E02C002010B5FFF7E3FF10BD41
:10EE80000020704700207047002070470020704726
:10EE900070B51C254543060028000D4C1130201884
:10EEA00006226419002102F012F81022002120002D
:10EEB00002F00DF8FF232374A376013BFF3B23836D
:10EEC0000233B340034A11689943116070BDC046D4
:10EED000002D0020FC2C002037B581B205006A46C9
:10EEE000074800F0A9FE041E08D15421684600F02E
:10EEF0008BFF041E02D12800FFF7CAFF20003EBD91
:10EF0000382D0020F0B51C00454B93B01B6807005E
:10EF100000910192002B41D0189B542B3ED8002128
:10EF2000404B06AE0393189B04AA3F4831700B94E4
:10EF30000A9300F081FE051E06D1082204A93800BC
:10EF400001F0ADFF00280ED004AA0121364800F0E0
:10EF500073FE002809D1082204A9380001F09FFFA0
:10EF6000002802D1012503AB9D7003ADA978FF29CC
:10EF700014D0009B042B15D1189A06AB542A0FD13C
:10EF8000343A1A70032219780A431A7009AB0793AE
:10EF9000234B019A1B6806A92800984713B0F0BDBF
:10EFA0004022EEE7214BE31A372B16D82048019A6E
:10EFB0000368002A03D101328A401342EED00122B5
:10EFC0008A4093432022036006AB1A70009A06AB76
:10EFD0001978032A21D10122D6E7164BE31A1B2BFD
:10EFE00008D82023337000236B700CAB0B931823CD
:10EFF0000A93EBE71048241A172CCFD8302333702C
:10F0000000236B700133EB700C4B997A022319408B
:10F01000DCD1182201F05BFFD8E70222B4E7C0463A
:10F02000AC2C002000FFFFFF382D0020002D002019
:10F03000FC2C0020B82C0020E02C0020D42C002038
:10F04000F0B5050085B000285CD000242E4B0126C9
:10F050001C605C729C72FF232C485B4276424381A9
:10F0600021000722068101F032FF210018222848E2
:10F0700001F02DFF2000FFF70BFF264C012026702A
:10F08000FFF706FFFF236370234B244C0193244BAF
:10F0900021006846009300F05BFD002827D101277E
:10F0A000204E2B783770002B23D1010002AA2000BC
:10F0B00000F0C2FD002818D11B4D03001C2202A93C
:10F0C000280000F057FE00280FD102AA39002000C6
:10F0D00000F0B2FD002808D11C3503001C2202A953
:10F0E000280000F047FE002801D00023337005B04F
:10F0F000F0BD6B469988DB882000594389B200F047
:10F1000083FEF4E70948F2E7AC2C0020D42C002061
:10F11000E02C0020F82C002054000200382D0020A4
:10F1200005EF0100FA2C0020002D00200E800000C9
:10F13000F8B5174B06001B780F00002B22D00028D3
:10F1400022D0002920D00B68002B1DD0114D2C6837
:10F15000002C1BD12800053108C0052201F0AEFEAD
:10F160000121022204203B79AB722B7A8B4313439B
:10F1700083432B72EB7919430A4382432000EA71DF
:10F180003470F8BD0448FCE70448FAE70448F8E79F
:10F19000FA2C0020AC2C0020088000000E8000001B
:10F1A00004800000154B1B78002B22D000281ED0B5
:10F1B00000291CD00378002B1BD1114B1B68002B9E
:10F1C00017D04278002A16D10E4B9B7A012B12D011
:10F1D0002420184003D0012310000B7070475BB24D
:10F1E000002B02DA02230B70F8E70870F6E70648F6
:10F1F000F4E70648F2E70648F0E7C046FA2C00209C
:10F20000AC2C0020D42C00200E80000008800000D0
:10F21000108000000F4B10B51B78002B18D0002871
:10F2200014D00078002813D10B4B1B68002B0FD093
:10F230000A4CA37EFF2B01D0FFF74EFE3634237815
:10F24000FF2B02D00120FFF747FE10BD0448FCE76A
:10F250000448FAE7FA2C0020AC2C0020002D0020F6
:10F260000E8000000880000013B5040081786A4613
:10F270000B4800F0E1FC002810D11C2263780948FB
:10F2800053436946C018130000F074FD064B074A4B
:10F290009B7A21009B009B586846984713BDC04647
:10F2A000382D0020B82C0020AC2C0020B02002000B
:10F2B000FF23F0B58FB00393C04B05001B78002BE4
:10F2C0003ED0BF4B1B680193002B39D0031D069322
:10F2D0002A2302AA9382BB4BBB4C04930388A27AD5
:10F2E000102B29D08188900707D5B848814200D1DA
:10F2F0003DE12089884200D139E1172B00D1D3E0CC
:10F3000000D93AE1132B63D0142B3FD0112B17D126
:10F31000022311009943A17204AD12072ED54BB2FE
:10F32000002B03DA00212800FFF774FC1023A372DE
:10F33000023302AA137317E00126324200D053E1D0
:10F340000FB0F0BDA24A5B08D35CFF2B00D0039343
:10F350000822A17A039B0A43DBB2A272E37202AADB
:10F3600004A89372FFF780FF002472E02A8B974B6A
:10F370009A4200D063E13E000396E9E7A878FF28AF
:10F38000D4D0FFF785FDFF23AB70CFE7E37A914E32
:10F39000FF2B10D1EB89318B994217D0B18E994256
:10F3A00009D101230821DBB20A4304A8E372A27247
:10F3B0008370FFF759FFE37A8749FF2B00D10021C3
:10F3C000A88800233200FFF717FCB9E70023E9E71C
:10F3D000132302A90B730F3B1A43E37AA2727D4EEB
:10F3E000FF2B53D1B37EFF2B07D0330036331B786E
:10F3F0000127FF2B02D0794C15E000271C20784311
:10F4000023783018022B3ED0FD2310308372072260
:10F41000210001F053FD03AB1F70039B04AADBB274
:10F420009370E37200240021674B0B91DA7A1C235E
:10F430005343F618684B0C960893614B0D91099154
:10F440000A911A1DA88808ABFFF7D4FB002800D04A
:10F4500076E75B4B22001B6805A904A8984702AB1E
:10F460001B7B122B00D06BE75748837A012B00D10E
:10F4700066E701235B420381FE3B438107220021B3
:10F4800001F025FD5CE7FE238376C4E7162354488C
:10F4900002AA137300210E22083001F018FD402348
:10F4A000A27A1343A372BDE70126454B44495B7A18
:10F4B0001420B3434B72042343499A4302AC8A722B
:10F4C0002073A879002804D0C87AFFF705FDAC792D
:10F4D000BFE7E879184200D146E704ACA078FF28DE
:10F4E00000D141E708231A43EB7A8A729B0706D5BD
:10F4F0001C224243374B9B189A7EB2439A76CB7AB2
:10F50000FF2B00D130E71C234343324D0A78ED181E
:10F51000022A0DD028000722103001F0CFFC022271
:10F52000AB7E9343AB7601212000FFF773FB1BE713
:10F53000294B01225B8A2B83AB7EF2E780235B425F
:10F540001A43A272953302AA13731D4B254A9B7A64
:10F5500004A89B009B58984706E7194B214A9B7AC1
:10F5600004A89B009B589847EAE61323E1E6E07A5B
:10F5700004A9887000204870BFE61C2BF5D0522BE0
:10F58000EBD0182B00D0DBE6AB79112BD6D11307CB
:10F59000D4D513480E220021083001F098FC162320
:10F5A00002AA1373A27A4A331343A372044B5A7A02
:10F5B00002231343024A5372D6E6C046FA2C0020B7
:10F5C000AC2C002000FFFFFFD42C0020FFFF000028
:10F5D000F82C0020002D0020B82C002043800000D3
:10F5E000E02C0020A0200200112302AA13730023A4
:10F5F00053728388871D238102230722A372390057
:10F60000200001F05BFC6B7D334200D09AE60E4D8A
:10F61000002F00D1AAE6280007221030390001F09F
:10F620003EFC002801D10600A6E6280007222C3067
:10F63000390001F034FC002800D095E69CE6AA8E43
:10F640009A4200D090E697E6002D002030B50029C0
:10F6500013D00A78002A12D10A4B1B68002B0ED057
:10F66000FF23094C8B702589FA3B854203D14A70F0
:10F67000E37A8B701300180030BD044BFBE7044B9A
:10F68000F9E7C046AC2C0020D42C00200E800000EE
:10F6900008800000064B10B5586980235B05421CAA
:10F6A00004D0196989B202F091F810BD5869FCE7DD
:10F6B0000010001029DF704728DF70470B0037B5B6
:10F6C000020018005D889C6809780095034D2401AC
:10F6D000645908301B69A04737BDC046402D002043
:10F6E000F0B5534C85B002932378060001911500C4
:10F6F000002B04D1029B13430CD1023323702378D7
:10F700000320013B052B1CD8180002F055F8051CFE
:10F7100034506B7E0123F1E7FFF7BCFF80225205D6
:10F7200013691169019D89B24D431269290092B292
:10F73000451E98B292086843FFF7BCFF02230028D9
:10F7400017D005B0F0BD0198FFF7B6FF0028F8D13B
:10F75000002D0DD1029B002B08D13378042B03D14F
:10F76000072323700020ECE70523FAE70423F8E7DA
:10F7700003232370E5E780277F053B690393FFF7A9
:10F7800089FF6B463969013889B241439889019BE9
:10F790002A0043431800FFF78DFF0028D1D1029BB8
:10F7A000002BE3D13378042BDED10623D9E7802761
:10F7B0007F053969019B89B24B437088AD001918E8
:10F7C0004B190193FFF766FF3969013889B241434C
:10F7D0007088029A451949190198FFF76BFF0028B4
:10F7E000E0D0AEE780235B051869019B80B24343FC
:10F7F0007288A900581892083169FFF75BFF00284A
:10F800009FD1029B1D43ABD0CFE7FFF743FF802280
:10F81000520513691169421E98B2504389B201F032
:10F82000D5FFFFF749FF002800D08AE70723A0E7AC
:10F83000862D0020F7B51424394E33785C430093AD
:10F84000231DF3183419019323792569042B1CD047
:10F85000052B51D00F20022B13D1324BE2881B888D
:10F86000616920899B02C018D21AC9182E4B401911
:10F870009A4207D89208FFF71DFF002801D1012303
:10F88000B370FEBD80225200F5E78027E268274B67
:10F8900011015B1859687F058D4205D119895B8973
:10F8A0004B43E1888B4201D0022A0AD139692800F2
:10F8B00089B201F08BFF1B4B1B88C018FFF7FCFEC1
:10F8C000DBE73969280089B201F080FF01003A695D
:10F8D00038694B1C80B258431423009C6343F318CF
:10F8E000DB885B19C31A92B24A43AA1A9B08920892
:10F8F0000198FFF7F5FEC0E780277F0539692800EA
:10F9000089B201F063FF010020893A69451938691D
:10F910004B1C80B24343E0885B1B1B1AE3E7C046E5
:10F92000502D0020842D0020FF030000402D0020DA
:10F93000F8B5144D06006C7806A807880420022C40
:10F940001AD028782418E4B2012C01D9023CE4B280
:10F95000142044432C19626100202200267160713A
:10F960000C3241C941C2E3802781AB78002B04D01F
:10F9700000206B7801336B70F8BDFFF75BFF112837
:10F98000F7D1F5E7502D002010B5084B5A78002A22
:10F9900001D1002010BD9B78002BFAD1FFF74AFF60
:10F9A0000028F6D01128F5D1F3E7C046502D0020ED
:10F9B000F8B53F4CA378002B1AD000233D4AA37022
:10F9C0001578082D10D102280CD11370FFF7DCFF39
:10F9D00000280DD014212378594304316118FFF712
:10F9E0006DFE05E0344AF0E7022802D0032847D034
:10F9F000F8BD324A2078944661461288013292B2AC
:10FA00000A801421414361180F79022F07D1C98858
:10FA100092028A4207DA1F003B43D7D003E0052F4A
:10FA20001FD1072DD2D10023224A137062461380C2
:10FA30006378013B6370431CDBB2012B1ED8142595
:10FA40004543291D611800202370FFF737FE00236E
:10FA5000012265192B71EB80EA602B616B612B81B0
:10FA6000B4E7042FB2D1EF1F7E427E41C988370030
:10FA700092028A42D0DB6B426B41CDE7431EDEE748
:10FA80001421237859430D1D6519641863790133D6
:10FA9000DBB26371032B02D129000D209FE7FFF732
:10FAA000C9FE0028A4D01128A2D0290097E7C0469B
:10FAB000502D0020862D00207C2D0020842D00203C
:10FAC000F8B5002401261B4B1B4D80271C801B4BC7
:10FAD0002C802C71EC80EE602C616C612C812C767A
:10FAE0006C832E626C62AC62AC831C80AC70FFF7DE
:10FAF000D1FD7F053B69821E98B250430822104B0E
:10FB00001860104B1C609C609C810F4B1A70FFF7B3
:10FB1000C1FD3B6939699BB20138584389B201F094
:10FB200055FEFFF7C9FDA04202D1084BAE701E7012
:10FB3000F8BDC046842D0020502D00207E2D0020D1
:10FB4000802D0020402D0020862D00207C2D0020BF
:10FB5000F0B5354B85B01B78040001910820002BCF
:10FB60000FD00630002C0CD000290AD02368002BBF
:10FB700007D0802676053369A5889BB29D4202D9BD
:10FB8000072005B0F0BD0F2DFAD9E388002BF7D080
:10FB9000264A5D431768FFF77DFD3369421E98B220
:10FBA0005043ED198542EBD8E3880293A5886B4357
:10FBB00003933369039A9BB29A4207DD30692900A7
:10FBC00080B201F089FE89B20029D9D103232B40EC
:10FBD000D6D1174A04201288012AD2D001991601E1
:10FBE00084C1144924688819058180257450029CB9
:10FBF0004760448103986D052C690133A4B29BB220
:10FC0000A0420FD92C69A4B2001B2C69A4B23F19E1
:10FC10000028F1D18919054C8B81054B01322760F1
:10FC20001A80AEE70020F0E77C2D0020802D002018
:10FC30007E2D0020402D0020104B30B51C7808236D
:10FC4000002C17D00633002814D0002A12D00368E5
:10FC5000002B11D10A4D2C68002C0DD02C89406846
:10FC6000614309186889444368682418A14203D293
:10FC700013605160180030BD0723FBE77C2D002086
:10FC8000402D0020F7B505001A4804780820002C04
:10FC90002FD0063000292CD0002D2AD02C68073810
:10FCA000002C26D114488446644624680720002C82
:10FCB0001FD0604606894489406874436F682418E1
:10FCC0000720A74215D2002A13D0964211D3D41888
:10FCD000A6420EDB0324093021420AD1234208D177
:10FCE000274206D100930E3813000A002900FFF7BF
:10FCF0001FFEFEBD7C2D0020402D0020F7B5050025
:10FD00001A4804780820002C2FD0063000292CD067
:10FD1000002D2AD02C680738002C26D114488446A0
:10FD2000644624680720002C1FD060460689448959
:10FD3000406874436F6824180720A74215D2002A30
:10FD400013D0964211D3D418A6420EDB03240930F7
:10FD500021420AD1234208D1274206D100930B3811
:10FD600013000A002900FFF7E3FDFEBD7C2D0020F3
:10FD7000402D0020F0B51700214A85B0127802907E
:10FD80000D009C460824002A33D00634002930D0C8
:10FD900000282ED00C68002C2ED11A4E3268002A72
:10FDA0002AD030897289736842434968D2189142D7
:10FDB00022D2002F20D0B8421ED36346FA189042B8
:10FDC0001ADB0322029B134218D16346134215D15A
:10FDD0000A40039212D161443A00029801F06EF891
:10FDE0002B6800971B01F658039A029B03212800F9
:10FDF000B047200005B0F0BD0724FAE71024F8E76B
:10FE00007C2D0020402D0020154B73B51B7804007D
:10FE10000D000820002B21D00630002C1ED02368B6
:10FE20000738002B1AD10F4A1368002B16D05668DA
:10FE30001189528963684A43921993420ED209305C
:10FE40009A070BD1981B01F047FD07200A1E05D128
:10FE500000912B0021000338FFF76AFD76BDC046F4
:10FE60007C2D0020402D00202EDF704751DF704791
:10FE700010DF704711DF704761DF704710B5080071
:10FE80001100FCF769FD10BDF0B5254B85B01B785E
:10FE9000DBB20093002B18D0224E234F33685A4216
:10FEA0005A41D2B201923A68002A14D1009C002B28
:10FEB0000BD021E003983B6898472C0019E02800FC
:10FEC0003368984729E0002C05D005B0F0BD002C20
:10FED000FBD1009C019403A8FFF7C8FF009C05001C
:10FEE000052806D00028E5D000221100FCF736FDD9
:10FEF0000024019B002BE6D10C4B03A91B880B802F
:10FF00000B4B1D682800FFF7B7FF0528DFD000283E
:10FF1000D5D000221100FCF721FD002CECD1D9E74F
:10FF2000942D00208C2D0020982D0020882D00205D
:10FF30009C2D002070B504000720002913D08D07E8
:10FF400011D109480160094920000A80084A09497D
:10FF50001360FFF78DFF002805D10122064B1630F4
:10FF60001A70FFF781FF70BD9C2D0020882D0020A6
:10FF7000902D00207DFE0100942D002010B5FFF78C
:10FF800079FF03005A1E9341014ADBB2137010BD82
:10FF9000942D00200E23002802D0024B186000236D
:10FFA000180070478C2D00200E23002802D0024B31
:10FFB0001860002318007047982D0020074B10B5DB
:10FFC0001B68002B07D09847002803D0002211009F
:10FFD000FCF7C4FC10BDFFF757FFFBE7902D002096
:10FFE000F0B5474680B49AB002A8122108AE00F0DE
:10FFF000F7FA0EAD301C132100F0F2FA14AC281CF5
:020000022000DC
:10000000122100F0EDFA201C132100F0E9FA3B4B1D
:100010003B4F98463CE0059B039A1A600023F35639
:100020000192013363D0336972681A600023EB5682
:10003000013356D02B696A681A600023E3560133F6
:1000400049D0E368626896201A6000F071FB02AB49
:100050001B785BB2013338D0069B039A1A600023E9
:10006000F356019201332AD0F36872681A600023B4
:10007000EB5601331DD0EB686A681A600023E35623
:10008000013310D02369626896201A6000F050FB9B
:1000900002AB1B785BB20133BDD14046391C242230
:1000A00000F040FAB7E74046391C242200F03AFA43
:1000B000E8E74046391C242200F034FADBE74046EA
:1000C000391C242200F02EFACEE74046391C2422A7
:1000D00000F028FAC0E74046391C242200F022FA3A
:1000E000AFE74046391C242200F01CFAA2E7404644
:1000F000391C242200F016FA95E7C046D0200200F1
:10010000E820020008B5012000F070FE7047C046EC
:100110007047C04608B5FFF7FBFFFFF7F7FFFCF796
:1001200069FA08BD074A13681818EFF30881884276
:1001300002D21060181C70470C220120024B404272
:100140001A60F8E704280020702E002008B5002867
:1001500000D1FEE7FFF744FFFBE7C046084802680E
:1001600003210A4302600749074A084B9B1A03DD33
:10017000043BC858D050FBDC054880470548004781
:100180002405004098230200002800208028002039
:10019000A501020009C10100FEE7FEE7FEE7FEE758
:1001A000FEE7FEE7384B1B78012B31D08021A322DC
:1001B0000123C905D20082208B50002240000A5042
:1001C000324A8B600B58002B21D1C833C046C04641
:1001D000C046C046C046C046C046C046C046C046EF
:1001E000C046C046C046C046013B002BEED1013A96
:1001F000002AE7D18023A321DB05C9005A50013230
:1002000082219A601A1C49005358002BFCD0704779
:100210001F4B1B681B07C9D1F0221E4B1B681340E4
:1002200028D11D4B1B68134218D0194B1B681B07A4
:10023000BCD1F022174B1B681340402BB6D1164B94
:100240001B681342B2D1C12380220121DB00D205F9
:10025000D150ABE7104B1B681342EAD10F4A104B49
:100260001A6080220F4B12021A60074B1B78012B79
:10027000DBD09BE7102BEDD0302BDAD1064B1B687F
:100280001342D6D1EAE7C046E00F00F08813000021
:10029000E40F00F0E80F00F0EC0F00F0DFFF07C004
:1002A00004050040186C0040C12208B50F4B9200B5
:1002B0009A58120604D58E2252009B58002B13D157
:1002C000C1220A4B92009A5852070CD58422520040
:1002D0009B580021002B06D0054B1868002802D03F
:1002E000044B1B68984708BD0121F5E7002000403A
:1002F000A02D0020A42D002010B5041C034B0833B2
:1003000003601C3000F022FB201C10BD60210200A5
:1003100010B5041C054B083303601C3000F016FBBD
:10032000201C00F03DFD201C10BDC04660210200D5
:1003300008B501290CD0022909D1C36C002B12D0B9
:10034000826B002A03D0011C101C3C31984708BD69
:10035000436B002B0CD0026A002AF8D0011C101C41
:1003600024319847F3E7836B002BF0D09847EEE7F2
:10037000036A002BEBD09847E9E7C04638B50E4B2F
:10038000041C0833036000230D1C03718360C360E9
:10039000036143618361C361036243638363C36435
:1003A000064A231C1C3000F0A1FA201D291C00F075
:1003B00007F9201C38BDC04660210200310302004D
:1003C00008B5043000F0E0F908BDC04608B5816307
:1003D000002907D000231C3003630221012200F012
:1003E000BDFA08BDC16400221C30022100F0B6FA3B
:1003F000F7E7C046426810B59446041C436963445D
:10040000191C00F07FF8E36A002B06D0A0690028D1
:1004100002D0211C1C31984710BDA369002BFBD0D2
:100420009847F9E710B5041C00F074F80023A361A5
:10043000E36210BD38B5051C0C1C00F06BF86C6154
:10044000286900F063F90119281C00F05BF838BD39
:1004500008B5C36A002B07D08269002A03D0011CAB
:10046000101C1C31984708BD8369002BFBD09847AE
:10047000F9E7C04610B5041C044B0360FFF7D2FF38
:10048000201C00F031F8201C10BDC046782102006D
:1004900010B5041C054B0360FFF7C4FF201C00F0DF
:1004A00023F8201C00F07CFC201C10BD78210200E9
:1004B00008B503689B68984708BDC046084B10B54F
:1004C00008330360002343608360C360041C00F0B2
:1004D00037F90449206100F0A5F8201C10BDC04682
:1004E000A0210200B104020010B5041C044B011D40
:1004F00008330360006900F0E5F8201C10BDC04619
:10050000A021020008B50A1C031C011D006900F0AF
:10051000B9F808BD011C08B50069043100F0D2F833
:1005200008BDC04638B5051C0C1C131C291C02480C
:10053000221C00F03FF838BDB421020010B5041CA5
:10054000C06800F0E3F86368C01A10BD38B5002534
:10055000056045608560041C00F0F2F8E06000F082
:10056000D5F86060A560201C38BDC046036810B592
:10057000002B06D1041CC06800F0C8F8012360609D
:10058000236010BD036810B58468002B02D0FFF70C
:10059000D5FF031CFA21E018890001F0A1F910BD74
:1005A00010B5041CC06800F0B1F800236060A360BF
:1005B00010BDC0460FB4012008B500F017FCC046BE
:1005C00038B50D1C041C00F0C7F86B1C07D0201CAC
:1005D000002100F0DFF8201C032100F0D5F838BD21
:1005E00038B50D1C041C00F0B7F86B1C0ED00023AE
:1005F000E35601330BD023696268201C01211A6085
:1006000000F0C8F8201C002100F0BEF838BD0348F7
:1006100003492422FFF786FFEDE7C046D020020001
:10062000E820020038B5041C0D1C03681B689847BD
:1006300063681D6038BDC04638B50368051CDB68BB
:1006400098476B685B680DE01C682B685B6898478F
:10065000241A002C0CDC6A6851688B68536012689D
:10066000002A0CD1002BEFD12B689B68984738BD2E
:100670006A682B6852681B6910689847F7E74868F2
:100680009047DEE738B50D1C72B64B600A604168D2
:100690004C68002C0ED02368D31A04D50AE01968E0
:1006A000511A03D41C1CA368002BF8D1A560AB60C1
:1006B00062B638BD03684D601B69101C9847231C47
:1006C000F5E7C04608B572B643685A688A4211D049
:1006D000002A09D093688B4204D107E09A688A42C5
:1006E00005D0131C002BF9D162B608BD131C8A6813
:1006F0009A60F9E792685A600368002A03D010688C
:100700001B699847F0E79B689847EDE708B50368D1
:100710005B68984708BDC04638B5051C00F02EFA46
:10072000041C00F02BFA001BA842FAD338BDC046C7
:1007300008B5FA239B005843FFF7EEFF08BDC046FB
:1007400000487047FC21020008B50248FFF774FF1B
:1007500008BDC046FC21020001704B1C0AD00123D9
:100760008B404360044BC360044B0361044B436103
:10077000044B83607047C046080500500C050050CC
:10078000100500501405005008B5007840B200F084
:1007900041F908BD38B50023C356051C0C1C0133B4
:1007A0000CD0002C01D0012C07D10023A022EB5645
:1007B000D205C133FF339B009C5038BD024803492A
:1007C0002A22FFF7AFFEECE7D0200200042202004D
:1007D000A223A022F0B54F464646D205DB00D358EF
:1007E000BE22C0B483B00193394B520099580029FE
:1007F00004D0C12189005958002904DB03B00CBC86
:1008000090469946F0BD00219950324B324D9946A1
:10081000324B0024324E984606E0985801439950D6
:10082000013404351F2CE9D028680028F8D0A35DD6
:10083000002B24D0019B0122E3401A420FD0231C3D
:10084000A021C133FF339B00C9055B589B039B0F5D
:10085000032B04D0234B1B68E3401A4233D1019B86
:100860000122E3401A420AD1231CA021C133FF33E5
:100870009B00C9055B589B039B0F032B19D0A0223B
:10088000D2059446E022C021A3006344D2009858C8
:1008900089020842C4D09F581348384098500198A4
:1008A000E040C007B9D48020995880020143995094
:1008B000B6E74B461B68E3401A42E0D043460221AC
:1008C0001B689847DBE7054B01211B689847D6E773
:1008D00000600040542E0020B42D0020B02D0020D8
:1008E000342E0020302E0020FFFFFCFF10B54C1CE2
:1008F0001ED0104C0160BE20226000240E4A400031
:1009000014500E488C00235001200D4B5854C12127
:10091000802389001B0653500A4A0B4B5058034052
:10092000C02000040343535040230020136010BD37
:10093000081CFCE7B02D002000600040B42D002012
:10094000342E002000E100E0FFFF00FF00210368DB
:10095000014A9B0099507047B42D002070B5A02427
:10096000E405A446E0250068ED00830063445E5979
:10097000254C34405C51002A0CD0012937D0022983
:100980000CD10122824021490C6822430A60204A8E
:10099000116805E0012923D002292ED01C4A1168D4
:1009A000C14001220A4204D118490968C1400A42E3
:1009B0000FD0A222A021D200C9058A58E021C2404E
:1009C000101CC900C20705D480205A588002024377
:1009D0005A5070BDC0205A58800202435A50F8E75E
:1009E00081400B4A14688C43211C1460D8E7814075
:1009F000074A146821431160D2E70122824003496B
:100A00000C6894430C60C9E7FFFFFCFF542E0020E4
:100A1000302E002038B5041C0D1C431C0ED0A02322
:100A2000A400DB05E018E0230C21DB00C258AD0078
:100A30008A43C250C2581543C55038BD02480349C5
:100A40001A22FFF76FFDEAE77422020088220200F3
:100A5000A1230021174ADB0010B5D150D221022377
:100A6000C4208900535044395350134980000C5816
:100A7000124B2340C024240223430B50802391387F
:100A80009B02FF380B500B60012313602E33C046CE
:100A9000C046C046C046C046C046C046C046C04626
:100AA000C046C046C046C046C046013B002BEED102
:100AB00010BDC0460010014000E100E0FF00FFFF54
:100AC0008221F8B5224B49005A58002A0AD0214AFF
:100AD00010680130106000225A50D2220339FF39C9
:100AE00092009950A0221A4B52009958002926D002
:100AF0000024D2209C50802280005202164D1A50B1
:100B00002A78002A1BD08226144A760011689A5946
:100B1000002A15D10F4A13680D48114A1B06825846
:100B20001343CB1A002B0ADC0023C2222B70802334
:100B300092005B02835040328350FFF705FEF8BD00
:100B4000044A1768013717609C5102241C50E2E7E1
:100B5000001001405C2E0020612E0020582E002045
:100B60000405000010B5044C2378002B03D1FFF7D7
:100B70006FFF0123237010BD602E002010B5144CB0
:100B80002378002B03D1FFF763FF01232370822119
:100B9000104A49005358002B18D00F4B18680130E9
:100BA000186000205050D2210230890050500B4A6A
:100BB00008491B688858190A1B061843084A00236D
:100BC00000F09AFF4904C00B084310BD024BEEE74A
:100BD000602E0020001001405C2E00200405000063
:100BE00040420F00F8B5464C071C2378002B03D178
:100BF000FFF72EFF012323708222424B52009958A7
:100C0000414E002908D031680131316000219950EE
:100C1000D2220231920099503C4A3A4933688858AE
:100C2000190A1B0618433A4A002300F065FF4B04DB
:100C3000C00BCD0B184300243A1C0023802112194D
:100C40006B410906884205D9002F03DB00200121F2
:100C500012184B41D9030023540CD0032D4A2143D1
:100C60008018594100232A4A00F026FF2A492B4DBB
:100C70000B78002B02D02B6898423FD08222214B68
:100C800052009C58002C08D0346801343460002491
:100C90009C50D222023492009C501A4C1B4A33685A
:100CA000A2581B061343C31A022B14DC82235B00D9
:100CB000E258002A08D03268013232600022E25045
:100CC000D22302329B00E250104B0E4A3068D358B8
:100CD000000618430230A82403020A4A1B0AE40053
:100CE00013510B782860002B08D101330B7080233F
:100CF000D2215B028900535044395350F8BDC0469D
:100D0000602E0020001001405C2E00200405000031
:100D100040420F003F420F00612E0020582E00205D
:100D2000074B1A78002A09D08021C220054A4902BF
:100D3000800011504030115000221A707047C04698
:100D4000612E00200010014082210022024B490048
:100D50005A503C315A5070470010014010B5041EE3
:100D600000D10134200000F07BF8002807D100F00A
:100D70001BF8002801D100F024F88047F2E710BDED
:100D8000012302681A4206D14278002A00D0FFDE11
:100D90004370180070470020FCE701230360704790
:100DA00010B500F067F810BD014B18687047C046D9
:100DB000642E00200B0010B50100180000F008F8A8
:100DC00010BD10B5062000F06FF90120FFF7BEF945
:100DD00010B5040004481300002804D00A000220C3
:100DE000210000E000BF10BD00000000084B10B55E
:100DF0000400002B02D0002100E000BF054B186862
:100E0000836A002B00D098472000FFF79FF9C04667
:100E1000000000005423020070B500260C4D0D4C5C
:100E2000641BA410A64209D1002600F08BFF0A4DD6
:100E30000A4C641BA410A64205D170BDB300EB5848
:100E400098470136EEE7B300EB5898470136F2E7D2
:100E50006C2800206C2800206C2800207C280020B2
:100E600010B5034B0100186800F084F810BDC046AF
:100E70000828002010B5034B0100186800F030F876
:100E800010BDC04608280020C9B28218904201D186
:100E90000020704703788B42FBD00130F6E730B575
:100EA0000024A24201D1002005E0035D651C0C5D19
:100EB000A34201D0181B30BD2C00F2E7002310B56F
:100EC0009A4200D110BDCC5CC4540133F8E7030052
:100ED0001218934200D1704719700133F9E70000EE
:100EE00070B50500002910D00C1F2368002B00DA14
:100EF000E418280000F045F91D4A1368002B05D1BD
:100F000063601460280000F03DF970BDA34209D968
:100F1000216860188342F3D118685B68411821602A
:100F2000EEE713005A68002A01D0A242F9D91968E5
:100F30005818A0420BD1206809185818196082422D
:100F4000E0D110685268411819605A60DAE7A0428F
:100F500002D90C232B60D5E721686018824203D1A7
:100F6000106852684118216062605C60CAE7C04640
:100F7000682E0020032370B5CD1C9D430835060064
:100F80000C2D1ED20C25A9421DD8300000F0F9F816
:100F9000254A14682100002919D1244C2368002B0C
:100FA00003D1300000F044F820602900300000F048
:100FB0003FF8431C2BD10C233000336000F0E2F8E3
:100FC00003E0002DDFDA0C233360002070BD0B68D6
:100FD0005B1B19D40B2B03D90B60CC18256003E0E5
:100FE0004B688C420DD11360300000F0CBF820002C
:100FF00007220B30231D9043C31AE7D05A42E25018
:10100000E4E763600C00EFE70C004968C3E70323E3
:10101000C41C9C43A042E1D0211A300000F008F823
:10102000431CDBD1C7E7C046682E00206C2E002091
:10103000002370B5064C050008002360FFF772F826
:10104000431C03D12368002B00D02B6070BDC04629
:10105000702E002070B504000D001F2904D916233E
:1010600003600120404270BD436C002B04D08A0015
:101070009B181A68002A08D1200000F031F82A00D5
:101080000100200000F01AF8EDE70020012AEAD064
:10109000511C03D1162301302360E4E7002428000B
:1010A0001C6090472000DEE710B5034B0100186874
:1010B000FFF7D0FF10BDC04608280020002370B500
:1010C000064C050008001100236000F033FE431CAD
:1010D00003D12368002B00D02B6070BD702E002040
:1010E00010B500F01FFE10BD0CB430B5164B9DB00E
:1010F0000C1E1D6808DA8B2301202B6040421DB0B6
:1011000030BC08BC02B01847822302A99B008B8127
:101110000023029008619C4200D0631E8B604B61EB
:1011200001235B42CB81209A21AB2800019300F080
:101130008DF8431C01DA8B232B60002CDFD00023B9
:10114000029A1370DBE7C046082800200023C25C27
:101150000133002AFBD1581E704730B50500002A24
:1011600000D130BD0C78013A6B1C2C700131002C81
:1011700005D19A189A42F4D01C700133FAE71D0089
:10118000EDE7704770470000F0B58E6885B0070046
:101190000C00039201939E423CD890238A89DB0085
:1011A0001A4234D00325096923685B1A02936369E4
:1011B00002985D43EB0F5D19019B6D1001331B1805
:1011C000AB4200D91D00530532D529003800FFF786
:1011D000D1FE061E09D10C233B6040230120A289C9
:1011E00040421343A38105B0F0BD029A2169FFF785
:1011F00065FEA389144A1A4080231343A381029BEE
:101200002661F61826606561019EED1AA560019BB6
:101210009E4200D9019E32000399206800F08AFAAC
:10122000A36800209B1BA36023689E192660DAE751
:101230002A00380000F091FA061EE0D1216938003A
:10124000FFF74EFEC7E7C0467FFBFFFFF0B5A1B03A
:1012500003901D008B890F0016001B0611D50B692A
:10126000002B0ED14021FFF785FE38603861002841
:1012700005D10C23039A0138136021B0F0BD40233F
:101280007B61002308AC6361203363761033A3765F
:10129000079535002B78002B01D0252B46D1AB1BB1
:1012A00005930CD0320039000398FFF76DFF431C03
:1012B00000D1AEE06269059B9446634463612B787C
:1012C000002B00D1A5E0012200235242626004A954
:1012D000543252186E1C2360E360A3601370A36540
:1012E000317805225348FFF7CFFD751C00281FD128
:1012F0002268D30604D5532304A95B182021197052
:10130000130704D5532304A95B182B2119703378D4
:101310002A2B16D0350000210A20E3682A786E1C9B
:10132000303A092A4ED9002918D010E00135B1E72A
:10133000404B2268C01A01238340134323602E00D0
:10134000CEE7079B191D1B680791002B01DB0B9350
:1013500004E05B42E3600223134323602B782E2BCF
:101360000AD16B782A2B35D1079B02351A1D1B68D1
:101370000792002B2BDB09932F4E29780322300094
:10138000FFF782FD002806D04023801B834022689F
:101390000135134323602978062228486E1C2176E4
:1013A000FFF772FD00283CD0254B002B25D10722EA
:1013B000079B07339343083307936369049A9B1889
:1013C000636166E7434301219B183500A6E70123CB
:1013D0005B42D0E700230A201A00013563602978B8
:1013E0006E1C3039092903D9002BC5D00992C3E7F7
:1013F0004243012352183500F1E707AB00933A004E
:10140000104B2100039800E000BF0490049B0133BF
:10141000D3D1BB890D985B0600D42EE70120404252
:101420002BE707AB00933A00064B2100039800F02E
:1014300079F8EAE7582302005E23020062230200E3
:101440000000000089110200F7B5150001938A68B9
:101450000B6900900C00934200DA130022002B600D
:1014600043321278002A01D001332B6023689B0697
:1014700002D52B6802332B60062723681F4027D034
:10148000230043331B785A1E93412268920630D4BE
:101490002200019943320098089EB047431C25D092
:1014A000062320682A68E16803400025042B03D145
:1014B0008D1AEB43DB171D40A3682269934201DDBF
:1014C0009B1AED180027BD4220D1002010E0013703
:1014D000E3682A689B1ABB42D2DD2200012319323D
:1014E00001990098089EB047431CF0D1012040426A
:1014F000FEBD3020E1184331087021005A1C4531EF
:101500000978A218433202331170C1E72200012387
:101510001A3201990098089EB047431CE6D0013763
:10152000D1E70000F0B589B004920A004332059378
:10153000039002920A7E0C000E9B6E2A00D186E078
:101540001FD8632A33D008D8002A00D18CE0582A4B
:101550004DD0250042352A7030E0642A01D0692A36
:10156000F7D1196825680A1D280629D508681A6068
:10157000002803DA2D23029A404213706B4E0A278B
:101580004FE0732A74D008D86F2A1FD0702AE0D198
:10159000202209680A43226003E0752A16D0782ABF
:1015A000D7D12200782145321170614E22E025000A
:1015B0001A684235111D196013682B70012365E00C
:1015C00008681A606906D3D500B2D1E719682568A2
:1015D000081D186008682E0605D5544E08276F2A86
:1015E0001BD00A2719E06D06F7D580B2F5E7453123
:1015F0004E4E0A7018682268011D006819601506B1
:1016000021D5D30702D520231A43226010270028B2
:1016100003D1202322689A4322602300002243330F
:101620001A706368A360002B58DB04222168914381
:101630002160002854D1029D002B5AD02500337818
:1016400042352B7055E05506DBD580B2D9E71A68D4
:101650000D68101D4969186013682E0601D51960C0
:1016600002E06D06FBD519800023029D23614FE047
:101670001A68111D19601568002162682800FFF7BB
:1016800003FC002801D0401B6060636823610023D5
:10169000029A13703CE023692A0004990398059D7F
:1016A000A847431C3ED023689B0715D4079BE068DE
:1016B000984239DA180037E02200012319320499E0
:1016C0000398059EB047431C2CD00135E368079A68
:1016D0009B1AAB42F0DCE9E70025F7E70028ADD024
:1016E000029D390000F0F8F8735C013D2B70002872
:1016F000F7D1082F09D12368DB0706D56368226973
:10170000934202DC3023013D2B70029B5B1B236163
:10171000059B07AA00932100049B0398FFF794FE02
:10172000431CB8D10120404209B0F0BD692302003A
:101730007A23020010B5884202D98B18984203D34D
:10174000002307E08B5C8354013AFBD210BDCC5CD4
:10175000C45401339A42FAD1F8E7F8B507000D00F6
:101760001600002905D11100FFF704FC0400200039
:10177000F8BD002A03D1FFF7B3FB3400F7E700F010
:1017800012F82C00B042F2D231003800FFF7F2FB21
:10179000041EECD029003200FFF790FB290038002E
:1017A000FFF79EFBE3E70B1F1B68181F002B01DAF6
:1017B0000B58C0187047000002B471464908490030
:1017C000095C49008E4402BC7047C04600224308B1
:1017D0008B4274D303098B425FD3030A8B4244D3F9
:1017E000030B8B4228D3030C8B420DD3FF2209023B
:1017F00012BA030C8B4202D31212090265D0030BFA
:101800008B4219D300E0090AC30B8B4201D3CB03EF
:10181000C01A5241830B8B4201D38B03C01A524131
:10182000430B8B4201D34B03C01A5241030B8B4233
:1018300001D30B03C01A5241C30A8B4201D3CB021E
:10184000C01A5241830A8B4201D38B02C01A524103
:10185000430A8B4201D34B02C01A5241030A8B4206
:1018600001D30B02C01A5241CDD2C3098B4201D31E
:10187000CB01C01A524183098B4201D38B01C01A9C
:10188000524143098B4201D34B01C01A5241030913
:101890008B4201D30B01C01A5241C3088B4201D3C2
:1018A000CB00C01A524183088B4201D38B00C01A6F
:1018B000524143088B4201D34B00C01A5241411A96
:1018C00000D20146524110467047FFE701B50020A3
:1018D00000F0F0F802BDC0460029F7D076E7704767
:1018E00003460B437FD4002243088B4274D3030981
:1018F0008B425FD3030A8B4244D3030B8B4228D322
:10190000030C8B420DD3FF22090212BA030C8B4247
:1019100002D31212090265D0030B8B4219D300E0E7
:10192000090AC30B8B4201D3CB03C01A5241830B6C
:101930008B4201D38B03C01A5241430B8B4201D31C
:101940004B03C01A5241030B8B4201D30B03C01A45
:101950005241C30A8B4201D3CB02C01A5241830ABF
:101960008B4201D38B02C01A5241430A8B4201D3EE
:101970004B02C01A5241030A8B4201D30B02C01A18
:101980005241CDD2C3098B4201D3CB01C01A52417F
:1019900083098B4201D38B01C01A524143098B4208
:1019A00001D34B01C01A524103098B4201D30B01F1
:1019B000C01A5241C3088B4201D3CB00C01A524116
:1019C00083088B4201D38B00C01A524143088B42DB
:1019D00001D34B00C01A5241411A00D20146524174
:1019E000104670475DE0CA0F00D04942031000D393
:1019F0004042534000229C4603098B422DD3030AE8
:101A00008B4212D3FC22890112BA030A8B420CD3F7
:101A1000890192118B4208D3890192118B4204D320
:101A200089013AD0921100E08909C3098B4201D3A0
:101A3000CB01C01A524183098B4201D38B01C01ADA
:101A4000524143098B4201D34B01C01A5241030951
:101A50008B4201D30B01C01A5241C3088B4201D300
:101A6000CB00C01A524183088B4201D38B00C01AAD
:101A70005241D9D243088B4201D34B00C01A524184
:101A8000411A00D20146634652415B10104601D311
:101A90004042002B00D54942704763465B1000D39B
:101AA000404201B5002000F005F802BD0029F8D041
:101AB00016E770477047C046002B11D1002A0FD19E
:101AC000002900D1002802D00021C943081C07B416
